{
  "contractName": "Adoption",
  "abi": [
    {
      "inputs": [
        {
          "internalType": "address",
          "name": "snowAdd",
          "type": "address"
        }
      ],
      "stateMutability": "nonpayable",
      "type": "constructor"
    },
    {
      "anonymous": false,
      "inputs": [
        {
          "indexed": false,
          "internalType": "address",
          "name": "adopter",
          "type": "address"
        },
        {
          "indexed": false,
          "internalType": "uint256",
          "name": "petID",
          "type": "uint256"
        },
        {
          "indexed": false,
          "internalType": "enum Adoption.AdoptionState",
          "name": "status",
          "type": "uint8"
        }
      ],
      "name": "AdoptionStatus",
      "type": "event"
    },
    {
      "anonymous": false,
      "inputs": [
        {
          "indexed": true,
          "internalType": "address",
          "name": "owner",
          "type": "address"
        },
        {
          "indexed": true,
          "internalType": "address",
          "name": "approved",
          "type": "address"
        },
        {
          "indexed": true,
          "internalType": "uint256",
          "name": "tokenId",
          "type": "uint256"
        }
      ],
      "name": "Approval",
      "type": "event"
    },
    {
      "anonymous": false,
      "inputs": [
        {
          "indexed": true,
          "internalType": "address",
          "name": "owner",
          "type": "address"
        },
        {
          "indexed": true,
          "internalType": "address",
          "name": "operator",
          "type": "address"
        },
        {
          "indexed": false,
          "internalType": "bool",
          "name": "approved",
          "type": "bool"
        }
      ],
      "name": "ApprovalForAll",
      "type": "event"
    },
    {
      "anonymous": false,
      "inputs": [
        {
          "indexed": true,
          "internalType": "address",
          "name": "previousOwner",
          "type": "address"
        },
        {
          "indexed": true,
          "internalType": "address",
          "name": "newOwner",
          "type": "address"
        }
      ],
      "name": "OwnershipTransferred",
      "type": "event"
    },
    {
      "anonymous": false,
      "inputs": [
        {
          "indexed": false,
          "internalType": "address",
          "name": "adopter",
          "type": "address"
        },
        {
          "indexed": false,
          "internalType": "address",
          "name": "owner",
          "type": "address"
        },
        {
          "indexed": false,
          "internalType": "uint256",
          "name": "amount",
          "type": "uint256"
        }
      ],
      "name": "TipsReceived",
      "type": "event"
    },
    {
      "anonymous": false,
      "inputs": [
        {
          "indexed": true,
          "internalType": "address",
          "name": "from",
          "type": "address"
        },
        {
          "indexed": true,
          "internalType": "address",
          "name": "to",
          "type": "address"
        },
        {
          "indexed": true,
          "internalType": "uint256",
          "name": "tokenId",
          "type": "uint256"
        }
      ],
      "name": "Transfer",
      "type": "event"
    },
    {
      "inputs": [],
      "name": "SNOW",
      "outputs": [
        {
          "internalType": "contract ShelterNOW",
          "name": "",
          "type": "address"
        }
      ],
      "stateMutability": "view",
      "type": "function",
      "constant": true
    },
    {
      "inputs": [
        {
          "internalType": "address",
          "name": "to",
          "type": "address"
        },
        {
          "internalType": "uint256",
          "name": "petID",
          "type": "uint256"
        }
      ],
      "name": "approve",
      "outputs": [],
      "stateMutability": "nonpayable",
      "type": "function"
    },
    {
      "inputs": [
        {
          "internalType": "address",
          "name": "owner",
          "type": "address"
        }
      ],
      "name": "balanceOf",
      "outputs": [
        {
          "internalType": "uint256",
          "name": "",
          "type": "uint256"
        }
      ],
      "stateMutability": "view",
      "type": "function",
      "constant": true
    },
    {
      "inputs": [
        {
          "internalType": "uint256",
          "name": "petID",
          "type": "uint256"
        }
      ],
      "name": "getApproved",
      "outputs": [
        {
          "internalType": "address",
          "name": "",
          "type": "address"
        }
      ],
      "stateMutability": "view",
      "type": "function",
      "constant": true
    },
    {
      "inputs": [
        {
          "internalType": "address",
          "name": "owner",
          "type": "address"
        },
        {
          "internalType": "address",
          "name": "operator",
          "type": "address"
        }
      ],
      "name": "isApprovedForAll",
      "outputs": [
        {
          "internalType": "bool",
          "name": "",
          "type": "bool"
        }
      ],
      "stateMutability": "view",
      "type": "function",
      "constant": true
    },
    {
      "inputs": [],
      "name": "name",
      "outputs": [
        {
          "internalType": "string",
          "name": "",
          "type": "string"
        }
      ],
      "stateMutability": "view",
      "type": "function",
      "constant": true
    },
    {
      "inputs": [],
      "name": "owner",
      "outputs": [
        {
          "internalType": "address",
          "name": "",
          "type": "address"
        }
      ],
      "stateMutability": "view",
      "type": "function",
      "constant": true
    },
    {
      "inputs": [
        {
          "internalType": "uint256",
          "name": "petID",
          "type": "uint256"
        }
      ],
      "name": "ownerOf",
      "outputs": [
        {
          "internalType": "address",
          "name": "",
          "type": "address"
        }
      ],
      "stateMutability": "view",
      "type": "function",
      "constant": true
    },
    {
      "inputs": [],
      "name": "pets",
      "outputs": [
        {
          "internalType": "uint256[]",
          "name": "",
          "type": "uint256[]"
        }
      ],
      "stateMutability": "view",
      "type": "function",
      "constant": true
    },
    {
      "inputs": [],
      "name": "renounceOwnership",
      "outputs": [],
      "stateMutability": "nonpayable",
      "type": "function"
    },
    {
      "inputs": [
        {
          "internalType": "address",
          "name": "from",
          "type": "address"
        },
        {
          "internalType": "address",
          "name": "to",
          "type": "address"
        },
        {
          "internalType": "uint256",
          "name": "petID",
          "type": "uint256"
        }
      ],
      "name": "safeTransferFrom",
      "outputs": [],
      "stateMutability": "nonpayable",
      "type": "function"
    },
    {
      "inputs": [
        {
          "internalType": "address",
          "name": "from",
          "type": "address"
        },
        {
          "internalType": "address",
          "name": "to",
          "type": "address"
        },
        {
          "internalType": "uint256",
          "name": "petID",
          "type": "uint256"
        },
        {
          "internalType": "bytes",
          "name": "",
          "type": "bytes"
        }
      ],
      "name": "safeTransferFrom",
      "outputs": [],
      "stateMutability": "nonpayable",
      "type": "function"
    },
    {
      "inputs": [
        {
          "internalType": "address",
          "name": "operator",
          "type": "address"
        },
        {
          "internalType": "bool",
          "name": "approved",
          "type": "bool"
        }
      ],
      "name": "setApprovalForAll",
      "outputs": [],
      "stateMutability": "nonpayable",
      "type": "function"
    },
    {
      "inputs": [
        {
          "internalType": "bytes4",
          "name": "interfaceId",
          "type": "bytes4"
        }
      ],
      "name": "supportsInterface",
      "outputs": [
        {
          "internalType": "bool",
          "name": "",
          "type": "bool"
        }
      ],
      "stateMutability": "view",
      "type": "function",
      "constant": true
    },
    {
      "inputs": [],
      "name": "symbol",
      "outputs": [
        {
          "internalType": "string",
          "name": "",
          "type": "string"
        }
      ],
      "stateMutability": "view",
      "type": "function",
      "constant": true
    },
    {
      "inputs": [
        {
          "internalType": "uint256",
          "name": "petID",
          "type": "uint256"
        }
      ],
      "name": "tokenURI",
      "outputs": [
        {
          "internalType": "string",
          "name": "",
          "type": "string"
        }
      ],
      "stateMutability": "view",
      "type": "function",
      "constant": true
    },
    {
      "inputs": [],
      "name": "totalSupply",
      "outputs": [
        {
          "internalType": "uint256",
          "name": "",
          "type": "uint256"
        }
      ],
      "stateMutability": "view",
      "type": "function",
      "constant": true
    },
    {
      "inputs": [
        {
          "internalType": "address",
          "name": "from",
          "type": "address"
        },
        {
          "internalType": "address",
          "name": "to",
          "type": "address"
        },
        {
          "internalType": "uint256",
          "name": "petID",
          "type": "uint256"
        }
      ],
      "name": "transferFrom",
      "outputs": [],
      "stateMutability": "nonpayable",
      "type": "function"
    },
    {
      "inputs": [
        {
          "internalType": "address",
          "name": "newOwner",
          "type": "address"
        }
      ],
      "name": "transferOwnership",
      "outputs": [],
      "stateMutability": "nonpayable",
      "type": "function"
    },
    {
      "inputs": [
        {
          "internalType": "string",
          "name": "URI_",
          "type": "string"
        },
        {
          "internalType": "enum Adoption.AdoptionState",
          "name": "newStatus",
          "type": "uint8"
        }
      ],
      "name": "addPet",
      "outputs": [],
      "stateMutability": "nonpayable",
      "type": "function"
    },
    {
      "inputs": [
        {
          "internalType": "uint256",
          "name": "petID",
          "type": "uint256"
        }
      ],
      "name": "requestAdoption",
      "outputs": [],
      "stateMutability": "nonpayable",
      "type": "function"
    },
    {
      "inputs": [
        {
          "internalType": "address",
          "name": "adopter",
          "type": "address"
        },
        {
          "internalType": "uint256",
          "name": "petID",
          "type": "uint256"
        }
      ],
      "name": "approveAdoption",
      "outputs": [],
      "stateMutability": "nonpayable",
      "type": "function"
    },
    {
      "inputs": [
        {
          "internalType": "address",
          "name": "adopter",
          "type": "address"
        },
        {
          "internalType": "uint256",
          "name": "petID",
          "type": "uint256"
        }
      ],
      "name": "rejectAdoption",
      "outputs": [],
      "stateMutability": "nonpayable",
      "type": "function"
    },
    {
      "inputs": [
        {
          "internalType": "uint256",
          "name": "petID",
          "type": "uint256"
        }
      ],
      "name": "cancelAdoption",
      "outputs": [],
      "stateMutability": "nonpayable",
      "type": "function"
    },
    {
      "inputs": [
        {
          "internalType": "uint256",
          "name": "petID",
          "type": "uint256"
        },
        {
          "internalType": "uint256",
          "name": "tipAmount",
          "type": "uint256"
        }
      ],
      "name": "confirmAdoption",
      "outputs": [],
      "stateMutability": "nonpayable",
      "type": "function"
    },
    {
      "inputs": [],
      "name": "withdraw",
      "outputs": [],
      "stateMutability": "payable",
      "type": "function",
      "payable": true
    },
    {
      "inputs": [],
      "name": "withdrawSNOW",
      "outputs": [],
      "stateMutability": "nonpayable",
      "type": "function"
    },
    {
      "inputs": [],
      "name": "getAdoptionFee",
      "outputs": [
        {
          "internalType": "uint256",
          "name": "",
          "type": "uint256"
        }
      ],
      "stateMutability": "view",
      "type": "function",
      "constant": true
    },
    {
      "inputs": [],
      "name": "getPenaltyRefundFee",
      "outputs": [
        {
          "internalType": "uint256",
          "name": "",
          "type": "uint256"
        }
      ],
      "stateMutability": "view",
      "type": "function",
      "constant": true
    },
    {
      "inputs": [
        {
          "internalType": "uint256",
          "name": "petID",
          "type": "uint256"
        }
      ],
      "name": "getAdoptionState",
      "outputs": [
        {
          "internalType": "enum Adoption.AdoptionState",
          "name": "",
          "type": "uint8"
        }
      ],
      "stateMutability": "view",
      "type": "function",
      "constant": true
    },
    {
      "inputs": [
        {
          "internalType": "uint256",
          "name": "petID",
          "type": "uint256"
        }
      ],
      "name": "getTempAdopterOf",
      "outputs": [
        {
          "internalType": "address",
          "name": "",
          "type": "address"
        }
      ],
      "stateMutability": "view",
      "type": "function",
      "constant": true
    },
    {
      "inputs": [
        {
          "internalType": "address",
          "name": "adopter",
          "type": "address"
        }
      ],
      "name": "getAdopterDeposit",
      "outputs": [
        {
          "internalType": "uint256",
          "name": "",
          "type": "uint256"
        }
      ],
      "stateMutability": "view",
      "type": "function",
      "constant": true
    },
    {
      "inputs": [
        {
          "internalType": "uint256",
          "name": "petID",
          "type": "uint256"
        }
      ],
      "name": "setPetAdoptable",
      "outputs": [],
      "stateMutability": "nonpayable",
      "type": "function"
    },
    {
      "inputs": [
        {
          "internalType": "uint256",
          "name": "petID",
          "type": "uint256"
        },
        {
          "internalType": "string",
          "name": "tokenURI_",
          "type": "string"
        }
      ],
      "name": "setTokenURI",
      "outputs": [],
      "stateMutability": "nonpayable",
      "type": "function"
    }
  ],
  "bytecode": "0x60806040523480156200001157600080fd5b50604051620060b2380380620060b2833981810160405281019062000037919062000475565b62000069620000546200025b640100000000026401000000009004565b62000263640100000000026401000000009004565b6040518060400160405280600781526020017f5368656c7465720000000000000000000000000000000000000000000000000081525060039080519060200190620000b69291906200035b565b506040518060400160405280600481526020017f5348454c0000000000000000000000000000000000000000000000000000000081525060049080519060200190620001049291906200035b565b5080600d60016101000a81548173ffffffffffffffffffffffffffffffffffffffff021916908373ffffffffffffffffffffffffffffffffffffffff160217905550600d60019054906101000a900473ffffffffffffffffffffffffffffffffffffffff1673ffffffffffffffffffffffffffffffffffffffff1663313ce5676040518163ffffffff167c0100000000000000000000000000000000000000000000000000000000028152600401602060405180830381865afa158015620001d0573d6000803e3d6000fd5b505050506040513d601f19601f82011682018060405250810190620001f69190620004e5565b600d60006101000a81548160ff021916908360ff1602179055506200022c61271062000327640100000000026401000000009004565b600b819055506200024e6107d062000327640100000000026401000000009004565b600c8190555050620007bb565b600033905090565b60008060009054906101000a900473ffffffffffffffffffffffffffffffffffffffff169050816000806101000a81548173ffffffffffffffffffffffffffffffffffffffff021916908373ffffffffffffffffffffffffffffffffffffffff1602179055508173ffffffffffffffffffffffffffffffffffffffff168173ffffffffffffffffffffffffffffffffffffffff167f8be0079c531659141344cd1fd0a4f28419497f9722a3daafe3b4186f6b6457e060405160405180910390a35050565b6000600d60009054906101000a900460ff16600a620003479190620006a4565b82620003549190620006f5565b9050919050565b828054620003699062000785565b90600052602060002090601f0160209004810192826200038d5760008555620003d9565b82601f10620003a857805160ff1916838001178555620003d9565b82800160010185558215620003d9579182015b82811115620003d8578251825591602001919060010190620003bb565b5b509050620003e89190620003ec565b5090565b5b8082111562000407576000816000905550600101620003ed565b5090565b600080fd5b600073ffffffffffffffffffffffffffffffffffffffff82169050919050565b60006200043d8262000410565b9050919050565b6200044f8162000430565b81146200045b57600080fd5b50565b6000815190506200046f8162000444565b92915050565b6000602082840312156200048e576200048d6200040b565b5b60006200049e848285016200045e565b91505092915050565b600060ff82169050919050565b620004bf81620004a7565b8114620004cb57600080fd5b50565b600081519050620004df81620004b4565b92915050565b600060208284031215620004fe57620004fd6200040b565b5b60006200050e84828501620004ce565b91505092915050565b7f4e487b7100000000000000000000000000000000000000000000000000000000600052601160045260246000fd5b6000600282049050919050565b6000808291508390505b6001851115620005a5578086048111156200057d576200057c62000517565b5b60018516156200058d5780820291505b80810290506200059d8562000546565b94506200055d565b94509492505050565b600082620005c0576001905062000693565b81620005d0576000905062000693565b8160018114620005e95760028114620005f4576200062a565b600191505062000693565b60ff84111562000609576200060862000517565b5b8360020a91508482111562000623576200062262000517565b5b5062000693565b5060208310610133831016604e8410600b8410161715620006645782820a9050838111156200065e576200065d62000517565b5b62000693565b62000673848484600162000553565b925090508184048111156200068d576200068c62000517565b5b81810290505b9392505050565b6000819050919050565b6000620006b1826200069a565b9150620006be83620004a7565b9250620006ed7fffffffffffffffffffffffffffffffffffffffffffffffffffffffffffffffff8484620005ae565b905092915050565b600062000702826200069a565b91506200070f836200069a565b9250817fffffffffffffffffffffffffffffffffffffffffffffffffffffffffffffffff04831182151516156200074b576200074a62000517565b5b828202905092915050565b7f4e487b7100000000000000000000000000000000000000000000000000000000600052602260045260246000fd5b600060028204905060018216806200079e57607f821691505b60208210811415620007b557620007b462000756565b5b50919050565b6158e780620007cb6000396000f3fe608060405260043610610216576000357c0100000000000000000000000000000000000000000000000000000000900480638da5cb5b1161012a578063c87b56dd116100bd578063e62af17f1161008c578063e62af17f14610717578063e985e9c514610740578063f2fde38b1461077d578063f51833ed146107a6578063fca902a1146107e357610216565b8063c87b56dd14610649578063cd963db614610686578063d6e6daef146106af578063d7389efc146106ec57610216565b8063a22cb465116100f9578063a22cb465146105b7578063b2e879f5146105e0578063b88d4fde14610609578063c6992ff41461063257610216565b80638da5cb5b1461050d57806395d89b41146105385780639d23ab3514610563578063a1227b681461058c57610216565b80633bd31320116101ad5780634e53873a1161017c5780634e53873a146104285780636352211e1461045157806370a082311461048e578063715018a6146104cb5780637e4bd960146104e257610216565b80633bd31320146103a35780633ccfd60b146103cc5780633ef809cf146103d657806342842e0e146103ff57610216565b80630ecee22b116101e95780630ecee22b146102e9578063162094c41461032657806318160ddd1461034f57806323b872dd1461037a57610216565b806301ffc9a71461021b57806306fdde0314610258578063081812fc14610283578063095ea7b3146102c0575b600080fd5b34801561022757600080fd5b50610242600480360381019061023d9190613f05565b61080e565b60405161024f9190613f4d565b60405180910390f35b34801561026457600080fd5b5061026d6108f0565b60405161027a9190614001565b60405180910390f35b34801561028f57600080fd5b506102aa60048036038101906102a59190614059565b610982565b6040516102b791906140c7565b60405180910390f35b3480156102cc57600080fd5b506102e760048036038101906102e2919061410e565b610a51565b005b3480156102f557600080fd5b50610310600480360381019061030b9190614059565b610b69565b60405161031d91906140c7565b60405180910390f35b34801561033257600080fd5b5061034d60048036038101906103489190614283565b610c38565b005b34801561035b57600080fd5b50610364610df6565b60405161037191906142ee565b60405180910390f35b34801561038657600080fd5b506103a1600480360381019061039c9190614309565b610e00565b005b3480156103af57600080fd5b506103ca60048036038101906103c59190614059565b610e60565b005b6103d4610fd3565b005b3480156103e257600080fd5b506103fd60048036038101906103f8919061410e565b611110565b005b34801561040b57600080fd5b5061042660048036038101906104219190614309565b611300565b005b34801561043457600080fd5b5061044f600480360381019061044a9190614059565b611320565b005b34801561045d57600080fd5b5061047860048036038101906104739190614059565b611625565b60405161048591906140c7565b60405180910390f35b34801561049a57600080fd5b506104b560048036038101906104b0919061435c565b6116d7565b6040516104c291906142ee565b60405180910390f35b3480156104d757600080fd5b506104e06117e9565b005b3480156104ee57600080fd5b506104f7611871565b60405161050491906142ee565b60405180910390f35b34801561051957600080fd5b5061052261187b565b60405161052f91906140c7565b60405180910390f35b34801561054457600080fd5b5061054d6118a4565b60405161055a9190614001565b60405180910390f35b34801561056f57600080fd5b5061058a600480360381019061058591906143ae565b611936565b005b34801561059857600080fd5b506105a1611bb3565b6040516105ae91906144c8565b60405180910390f35b3480156105c357600080fd5b506105de60048036038101906105d99190614516565b611c4c565b005b3480156105ec57600080fd5b5061060760048036038101906106029190614059565b611c62565b005b34801561061557600080fd5b50610630600480360381019061062b91906145f7565b611f01565b005b34801561063e57600080fd5b50610647611f62565b005b34801561065557600080fd5b50610670600480360381019061066b9190614059565b6121a4565b60405161067d9190614001565b60405180910390f35b34801561069257600080fd5b506106ad60048036038101906106a8919061467a565b6122db565b005b3480156106bb57600080fd5b506106d660048036038101906106d1919061435c565b6126f2565b6040516106e391906142ee565b60405180910390f35b3480156106f857600080fd5b5061070161273b565b60405161070e91906142ee565b60405180910390f35b34801561072357600080fd5b5061073e6004803603810190610739919061410e565b612745565b005b34801561074c57600080fd5b50610767600480360381019061076291906146ba565b6129a9565b6040516107749190613f4d565b60405180910390f35b34801561078957600080fd5b506107a4600480360381019061079f919061435c565b612a3d565b005b3480156107b257600080fd5b506107cd60048036038101906107c89190614059565b612b35565b6040516107da9190614771565b60405180910390f35b3480156107ef57600080fd5b506107f8612bf1565b60405161080591906147eb565b60405180910390f35b60007f80ac58cd000000000000000000000000000000000000000000000000000000007bffffffffffffffffffffffffffffffffffffffffffffffffffffffff1916827bffffffffffffffffffffffffffffffffffffffffffffffffffffffff191614806108d957507f5b5e139f000000000000000000000000000000000000000000000000000000007bffffffffffffffffffffffffffffffffffffffffffffffffffffffff1916827bffffffffffffffffffffffffffffffffffffffffffffffffffffffff1916145b806108e957506108e882612c17565b5b9050919050565b6060600380546108ff90614835565b80601f016020809104026020016040519081016040528092919081815260200182805461092b90614835565b80156109785780601f1061094d57610100808354040283529160200191610978565b820191906000526020600020905b81548152906001019060200180831161095b57829003601f168201915b5050505050905090565b6000818063ffffffff1681146109cd576040517f08c379a00000000000000000000000000000000000000000000000000000000081526004016109c4906148b3565b60405180910390fd5b6109d681612c81565b610a15576040517f08c379a0000000000000000000000000000000000000000000000000000000008152600401610a0c90614945565b60405180910390fd5b6005600084815260200190815260200160002060009054906101000a900473ffffffffffffffffffffffffffffffffffffffff16915050919050565b6000610a5c82611625565b90508073ffffffffffffffffffffffffffffffffffffffff168373ffffffffffffffffffffffffffffffffffffffff161415610acd576040517f08c379a0000000000000000000000000000000000000000000000000000000008152600401610ac4906149d7565b60405180910390fd5b8073ffffffffffffffffffffffffffffffffffffffff16610aec612ced565b73ffffffffffffffffffffffffffffffffffffffff161480610b1b5750610b1a81610b15612ced565b6129a9565b5b610b5a576040517f08c379a0000000000000000000000000000000000000000000000000000000008152600401610b5190614a69565b60405180910390fd5b610b648383612cf5565b505050565b6000818063ffffffff168114610bb4576040517f08c379a0000000000000000000000000000000000000000000000000000000008152600401610bab906148b3565b60405180910390fd5b610bbd81612c81565b610bfc576040517f08c379a0000000000000000000000000000000000000000000000000000000008152600401610bf390614945565b60405180910390fd5b6008600084815260200190815260200160002060009054906101000a900473ffffffffffffffffffffffffffffffffffffffff16915050919050565b818063ffffffff168114610c81576040517f08c379a0000000000000000000000000000000000000000000000000000000008152600401610c78906148b3565b60405180910390fd5b610c8a81612c81565b610cc9576040517f08c379a0000000000000000000000000000000000000000000000000000000008152600401610cc090614945565b60405180910390fd5b610cd1612ced565b73ffffffffffffffffffffffffffffffffffffffff16610cef61187b565b73ffffffffffffffffffffffffffffffffffffffff1614610d45576040517f08c379a0000000000000000000000000000000000000000000000000000000008152600401610d3c90614ad5565b60405180910390fd5b60046009811115610d5957610d586146fa565b5b600a600085815260200190815260200160002060009054906101000a900460ff166009811115610d8c57610d8b6146fa565b5b141580610dde575060086009811115610da857610da76146fa565b5b600a600085815260200190815260200160002060009054906101000a900460ff166009811115610ddb57610dda6146fa565b5b14155b610de757600080fd5b610df18383612dae565b505050565b6000600754905090565b610e11610e0b612ced565b82612e6c565b610e50576040517f08c379a0000000000000000000000000000000000000000000000000000000008152600401610e4790614b67565b60405180910390fd5b610e5b838383612f4a565b505050565b808063ffffffff168114610ea9576040517f08c379a0000000000000000000000000000000000000000000000000000000008152600401610ea0906148b3565b60405180910390fd5b610eb281612c81565b610ef1576040517f08c379a0000000000000000000000000000000000000000000000000000000008152600401610ee890614945565b60405180910390fd5b60036009811115610f0557610f046146fa565b5b600a600084815260200190815260200160002060009054906101000a900460ff166009811115610f3857610f376146fa565b5b14610f78576040517f08c379a0000000000000000000000000000000000000000000000000000000008152600401610f6f90614bd3565b60405180910390fd5b610f8233836130ed565b610fc1576040517f08c379a0000000000000000000000000000000000000000000000000000000008152600401610fb890614c3f565b60405180910390fd5b610fcf33836001600661330c565b5050565b610fdb612ced565b73ffffffffffffffffffffffffffffffffffffffff16610ff961187b565b73ffffffffffffffffffffffffffffffffffffffff161461104f576040517f08c379a000000000000000000000000000000000000000000000000000000000815260040161104690614ad5565b60405180910390fd5b60003073ffffffffffffffffffffffffffffffffffffffff1631116110a9576040517f08c379a00000000000000000000000000000000000000000000000000000000081526004016110a090614cd1565b60405180910390fd5b6110b161187b565b73ffffffffffffffffffffffffffffffffffffffff166108fc3073ffffffffffffffffffffffffffffffffffffffff16319081150290604051600060405180830381858888f1935050505015801561110d573d6000803e3d6000fd5b50565b611118612ced565b73ffffffffffffffffffffffffffffffffffffffff1661113661187b565b73ffffffffffffffffffffffffffffffffffffffff161461118c576040517f08c379a000000000000000000000000000000000000000000000000000000000815260040161118390614ad5565b60405180910390fd5b808063ffffffff1681146111d5576040517f08c379a00000000000000000000000000000000000000000000000000000000081526004016111cc906148b3565b60405180910390fd5b6111de81612c81565b61121d576040517f08c379a000000000000000000000000000000000000000000000000000000000815260040161121490614945565b60405180910390fd5b60026009811115611231576112306146fa565b5b600a600084815260200190815260200160002060009054906101000a900460ff166009811115611264576112636146fa565b5b146112a4576040517f08c379a000000000000000000000000000000000000000000000000000000000815260040161129b90614d3d565b60405180910390fd5b6112ae83836130ed565b6112ed576040517f08c379a00000000000000000000000000000000000000000000000000000000081526004016112e490614c3f565b60405180910390fd5b6112fb83836001600561330c565b505050565b61131b83838360405180602001604052806000815250611f01565b505050565b808063ffffffff168114611369576040517f08c379a0000000000000000000000000000000000000000000000000000000008152600401611360906148b3565b60405180910390fd5b61137281612c81565b6113b1576040517f08c379a00000000000000000000000000000000000000000000000000000000081526004016113a890614945565b60405180910390fd5b600160098111156113c5576113c46146fa565b5b600a600084815260200190815260200160002060009054906101000a900460ff1660098111156113f8576113f76146fa565b5b14611438576040517f08c379a000000000000000000000000000000000000000000000000000000000815260040161142f90614dcf565b60405180910390fd5b6000339050600b54600960008373ffffffffffffffffffffffffffffffffffffffff1673ffffffffffffffffffffffffffffffffffffffff168152602001908152602001600020600082825461148e9190614e1e565b925050819055506002600a600085815260200190815260200160002060006101000a81548160ff021916908360098111156114cc576114cb6146fa565b5b0217905550806008600085815260200190815260200160002060006101000a81548173ffffffffffffffffffffffffffffffffffffffff021916908373ffffffffffffffffffffffffffffffffffffffff160217905550600d60019054906101000a900473ffffffffffffffffffffffffffffffffffffffff1673ffffffffffffffffffffffffffffffffffffffff166323b872dd8230600b546040518463ffffffff167c01000000000000000000000000000000000000000000000000000000000281526004016115a093929190614e74565b6020604051808303816000875af11580156115bf573d6000803e3d6000fd5b505050506040513d601f19601f820116820180604052508101906115e39190614ec0565b507f038ac1625c51f9550a0ad1b4afe173b1ece06d88e5302c6d8cd2e7b36bda36898184600260405161161893929190614eed565b60405180910390a1505050565b6000806002600084815260200190815260200160002060009054906101000a900473ffffffffffffffffffffffffffffffffffffffff169050600073ffffffffffffffffffffffffffffffffffffffff168173ffffffffffffffffffffffffffffffffffffffff1614156116ce576040517f08c379a00000000000000000000000000000000000000000000000000000000081526004016116c590614f96565b60405180910390fd5b80915050919050565b60008073ffffffffffffffffffffffffffffffffffffffff168273ffffffffffffffffffffffffffffffffffffffff161415611748576040517f08c379a000000000000000000000000000000000000000000000000000000000815260040161173f90615028565b60405180910390fd5b6000805b6007548110156117df578373ffffffffffffffffffffffffffffffffffffffff166002600083815260200190815260200160002060009054906101000a900473ffffffffffffffffffffffffffffffffffffffff1673ffffffffffffffffffffffffffffffffffffffff1614156117cc5781806117c890615048565b9250505b80806117d790615048565b91505061174c565b5080915050919050565b6117f1612ced565b73ffffffffffffffffffffffffffffffffffffffff1661180f61187b565b73ffffffffffffffffffffffffffffffffffffffff1614611865576040517f08c379a000000000000000000000000000000000000000000000000000000000815260040161185c90614ad5565b60405180910390fd5b61186f6000613a42565b565b6000600b54905090565b60008060009054906101000a900473ffffffffffffffffffffffffffffffffffffffff16905090565b6060600480546118b390614835565b80601f01602080910402602001604051908101604052809291908181526020018280546118df90614835565b801561192c5780601f106119015761010080835404028352916020019161192c565b820191906000526020600020905b81548152906001019060200180831161190f57829003601f168201915b5050505050905090565b61193e612ced565b73ffffffffffffffffffffffffffffffffffffffff1661195c61187b565b73ffffffffffffffffffffffffffffffffffffffff16146119b2576040517f08c379a00000000000000000000000000000000000000000000000000000000081526004016119a990614ad5565b60405180910390fd5b600160098111156119c6576119c56146fa565b5b8160098111156119d9576119d86146fa565b5b1480611a095750600060098111156119f4576119f36146fa565b5b816009811115611a0757611a066146fa565b5b145b611a48576040517f08c379a0000000000000000000000000000000000000000000000000000000008152600401611a3f90615103565b60405180910390fd5b6000611a52610df6565b90508063ffffffff168114611a9c576040517f08c379a0000000000000000000000000000000000000000000000000000000008152600401611a939061516f565b60405180910390fd5b611aad611aa761187b565b82613b06565b611ab78184610c38565b60016009811115611acb57611aca6146fa565b5b826009811115611ade57611add6146fa565b5b1415611b205781600a600083815260200190815260200160002060006101000a81548160ff02191690836009811115611b1a57611b196146fa565b5b02179055505b336008600083815260200190815260200160002060006101000a81548173ffffffffffffffffffffffffffffffffffffffff021916908373ffffffffffffffffffffffffffffffffffffffff1602179055507f038ac1625c51f9550a0ad1b4afe173b1ece06d88e5302c6d8cd2e7b36bda368933826007604051611ba693929190614eed565b60405180910390a1505050565b6060600060075467ffffffffffffffff811115611bd357611bd2614158565b5b604051908082528060200260200182016040528015611c015781602001602082028036833780820191505090505b50905060005b600754811015611c445780828281518110611c2557611c2461518f565b5b6020026020010181815250508080611c3c90615048565b915050611c07565b508091505090565b611c5e611c57612ced565b8383613c89565b5050565b611c6a612ced565b73ffffffffffffffffffffffffffffffffffffffff16611c8861187b565b73ffffffffffffffffffffffffffffffffffffffff1614611cde576040517f08c379a0000000000000000000000000000000000000000000000000000000008152600401611cd590614ad5565b60405180910390fd5b808063ffffffff168114611d27576040517f08c379a0000000000000000000000000000000000000000000000000000000008152600401611d1e906148b3565b60405180910390fd5b611d3081612c81565b611d6f576040517f08c379a0000000000000000000000000000000000000000000000000000000008152600401611d6690614945565b60405180910390fd5b60046009811115611d8357611d826146fa565b5b600a600084815260200190815260200160002060009054906101000a900460ff166009811115611db657611db56146fa565b5b1415611df7576040517f08c379a0000000000000000000000000000000000000000000000000000000008152600401611dee9061520a565b60405180910390fd5b60006009811115611e0b57611e0a6146fa565b5b600a600084815260200190815260200160002060009054906101000a900460ff166009811115611e3e57611e3d6146fa565b5b14611e7e576040517f08c379a0000000000000000000000000000000000000000000000000000000008152600401611e7590615276565b60405180910390fd5b6001600a600084815260200190815260200160002060006101000a81548160ff02191690836009811115611eb557611eb46146fa565b5b02179055507f038ac1625c51f9550a0ad1b4afe173b1ece06d88e5302c6d8cd2e7b36bda3689611ee361187b565b836001604051611ef593929190614eed565b60405180910390a15050565b611f12611f0c612ced565b83612e6c565b611f51576040517f08c379a0000000000000000000000000000000000000000000000000000000008152600401611f4890614b67565b60405180910390fd5b611f5c848484612f4a565b50505050565b611f6a612ced565b73ffffffffffffffffffffffffffffffffffffffff16611f8861187b565b73ffffffffffffffffffffffffffffffffffffffff1614611fde576040517f08c379a0000000000000000000000000000000000000000000000000000000008152600401611fd590614ad5565b60405180910390fd5b6000600d60019054906101000a900473ffffffffffffffffffffffffffffffffffffffff1673ffffffffffffffffffffffffffffffffffffffff166370a08231306040518263ffffffff167c010000000000000000000000000000000000000000000000000000000002815260040161205791906140c7565b602060405180830381865afa158015612074573d6000803e3d6000fd5b505050506040513d601f19601f8201168201806040525081019061209891906152ab565b9050600081116120dd576040517f08c379a00000000000000000000000000000000000000000000000000000000081526004016120d490614cd1565b60405180910390fd5b600d60019054906101000a900473ffffffffffffffffffffffffffffffffffffffff1673ffffffffffffffffffffffffffffffffffffffff1663a9059cbb61212361187b565b836040518363ffffffff167c010000000000000000000000000000000000000000000000000000000002815260040161215d9291906152d8565b6020604051808303816000875af115801561217c573d6000803e3d6000fd5b505050506040513d601f19601f820116820180604052508101906121a09190614ec0565b5050565b6060818063ffffffff1681146121ef576040517f08c379a00000000000000000000000000000000000000000000000000000000081526004016121e6906148b3565b60405180910390fd5b6121f881612c81565b612237576040517f08c379a000000000000000000000000000000000000000000000000000000000815260040161222e90614945565b60405180910390fd5b60016000848152602001908152602001600020805461225590614835565b80601f016020809104026020016040519081016040528092919081815260200182805461228190614835565b80156122ce5780601f106122a3576101008083540402835291602001916122ce565b820191906000526020600020905b8154815290600101906020018083116122b157829003601f168201915b5050505050915050919050565b818063ffffffff168114612324576040517f08c379a000000000000000000000000000000000000000000000000000000000815260040161231b906148b3565b60405180910390fd5b61232d81612c81565b61236c576040517f08c379a000000000000000000000000000000000000000000000000000000000815260040161236390614945565b60405180910390fd5b600360098111156123805761237f6146fa565b5b600a600085815260200190815260200160002060009054906101000a900460ff1660098111156123b3576123b26146fa565b5b146123f3576040517f08c379a00000000000000000000000000000000000000000000000000000000081526004016123ea90614bd3565b60405180910390fd5b6000339050600061240261187b565b905061240e82866130ed565b61244d576040517f08c379a000000000000000000000000000000000000000000000000000000000815260040161244490614c3f565b60405180910390fd5b6004600a600087815260200190815260200160002060006101000a81548160ff02191690836009811115612484576124836146fa565b5b0217905550600b54600960008473ffffffffffffffffffffffffffffffffffffffff1673ffffffffffffffffffffffffffffffffffffffff16815260200190815260200160002060008282546124da9190615301565b925050819055506124ec818387611300565b600d60019054906101000a900473ffffffffffffffffffffffffffffffffffffffff1673ffffffffffffffffffffffffffffffffffffffff1663a9059cbb83600b546040518363ffffffff167c01000000000000000000000000000000000000000000000000000000000281526004016125679291906152d8565b6020604051808303816000875af1158015612586573d6000803e3d6000fd5b505050506040513d601f19601f820116820180604052508101906125aa9190614ec0565b5060008411156126af57600d60019054906101000a900473ffffffffffffffffffffffffffffffffffffffff1673ffffffffffffffffffffffffffffffffffffffff166323b872dd8383876040518463ffffffff167c010000000000000000000000000000000000000000000000000000000002815260040161262f93929190614e74565b6020604051808303816000875af115801561264e573d6000803e3d6000fd5b505050506040513d601f19601f820116820180604052508101906126729190614ec0565b507fa255c17b1fd73c3aa0e9cd33e62054bebdd6dafc6d8da5284bef55212844a2ad8282866040516126a693929190614e74565b60405180910390a15b7f038ac1625c51f9550a0ad1b4afe173b1ece06d88e5302c6d8cd2e7b36bda3689828660046040516126e393929190614eed565b60405180910390a15050505050565b6000600960008373ffffffffffffffffffffffffffffffffffffffff1673ffffffffffffffffffffffffffffffffffffffff168152602001908152602001600020549050919050565b6000600c54905090565b61274d612ced565b73ffffffffffffffffffffffffffffffffffffffff1661276b61187b565b73ffffffffffffffffffffffffffffffffffffffff16146127c1576040517f08c379a00000000000000000000000000000000000000000000000000000000081526004016127b890614ad5565b60405180910390fd5b808063ffffffff16811461280a576040517f08c379a0000000000000000000000000000000000000000000000000000000008152600401612801906148b3565b60405180910390fd5b61281381612c81565b612852576040517f08c379a000000000000000000000000000000000000000000000000000000000815260040161284990614945565b60405180910390fd5b60026009811115612866576128656146fa565b5b600a600084815260200190815260200160002060009054906101000a900460ff166009811115612899576128986146fa565b5b146128d9576040517f08c379a00000000000000000000000000000000000000000000000000000000081526004016128d090614d3d565b60405180910390fd5b6128e383836130ed565b612922576040517f08c379a000000000000000000000000000000000000000000000000000000000815260040161291990614c3f565b60405180910390fd5b61292c8383610a51565b6003600a600084815260200190815260200160002060006101000a81548160ff02191690836009811115612963576129626146fa565b5b02179055507f038ac1625c51f9550a0ad1b4afe173b1ece06d88e5302c6d8cd2e7b36bda36898383600360405161299c93929190614eed565b60405180910390a1505050565b6000600660008473ffffffffffffffffffffffffffffffffffffffff1673ffffffffffffffffffffffffffffffffffffffff16815260200190815260200160002060008373ffffffffffffffffffffffffffffffffffffffff1673ffffffffffffffffffffffffffffffffffffffff16815260200190815260200160002060009054906101000a900460ff16905092915050565b612a45612ced565b73ffffffffffffffffffffffffffffffffffffffff16612a6361187b565b73ffffffffffffffffffffffffffffffffffffffff1614612ab9576040517f08c379a0000000000000000000000000000000000000000000000000000000008152600401612ab090614ad5565b60405180910390fd5b600073ffffffffffffffffffffffffffffffffffffffff168173ffffffffffffffffffffffffffffffffffffffff161415612b29576040517f08c379a0000000000000000000000000000000000000000000000000000000008152600401612b20906153a7565b60405180910390fd5b612b3281613a42565b50565b6000818063ffffffff168114612b80576040517f08c379a0000000000000000000000000000000000000000000000000000000008152600401612b77906148b3565b60405180910390fd5b612b8981612c81565b612bc8576040517f08c379a0000000000000000000000000000000000000000000000000000000008152600401612bbf90614945565b60405180910390fd5b600a600084815260200190815260200160002060009054906101000a900460ff16915050919050565b600d60019054906101000a900473ffffffffffffffffffffffffffffffffffffffff1681565b60007f01ffc9a7000000000000000000000000000000000000000000000000000000007bffffffffffffffffffffffffffffffffffffffffffffffffffffffff1916827bffffffffffffffffffffffffffffffffffffffffffffffffffffffff1916149050919050565b60008073ffffffffffffffffffffffffffffffffffffffff166002600084815260200190815260200160002060009054906101000a900473ffffffffffffffffffffffffffffffffffffffff1673ffffffffffffffffffffffffffffffffffffffff1614159050919050565b600033905090565b816005600083815260200190815260200160002060006101000a81548173ffffffffffffffffffffffffffffffffffffffff021916908373ffffffffffffffffffffffffffffffffffffffff160217905550808273ffffffffffffffffffffffffffffffffffffffff16612d6883611625565b73ffffffffffffffffffffffffffffffffffffffff167f8c5be1e5ebec7d5bd14f71427d1e84f3dd0314c0f7b2291e5b200ac8c7c3b92560405160405180910390a45050565b818063ffffffff168114612df7576040517f08c379a0000000000000000000000000000000000000000000000000000000008152600401612dee906148b3565b60405180910390fd5b612e0081612c81565b612e3f576040517f08c379a0000000000000000000000000000000000000000000000000000000008152600401612e3690614945565b60405180910390fd5b81600160008581526020019081526020016000209080519060200190612e66929190613df6565b50505050565b6000612e7782612c81565b612eb6576040517f08c379a0000000000000000000000000000000000000000000000000000000008152600401612ead90615439565b60405180910390fd5b6000612ec183611625565b90508073ffffffffffffffffffffffffffffffffffffffff168473ffffffffffffffffffffffffffffffffffffffff161480612f035750612f0281856129a9565b5b80612f4157508373ffffffffffffffffffffffffffffffffffffffff16612f2984610982565b73ffffffffffffffffffffffffffffffffffffffff16145b91505092915050565b8273ffffffffffffffffffffffffffffffffffffffff16612f6a82611625565b73ffffffffffffffffffffffffffffffffffffffff1614612fc0576040517f08c379a0000000000000000000000000000000000000000000000000000000008152600401612fb7906154cb565b60405180910390fd5b600073ffffffffffffffffffffffffffffffffffffffff168273ffffffffffffffffffffffffffffffffffffffff161415613030576040517f08c379a00000000000000000000000000000000000000000000000000000000081526004016130279061555d565b60405180910390fd5b61303b600082612cf5565b816002600083815260200190815260200160002060006101000a81548173ffffffffffffffffffffffffffffffffffffffff021916908373ffffffffffffffffffffffffffffffffffffffff160217905550808273ffffffffffffffffffffffffffffffffffffffff168473ffffffffffffffffffffffffffffffffffffffff167fddf252ad1be2c89b69c2b068fc378daa952ba7f163c4a11628f55a4df523b3ef60405160405180910390a4505050565b6000818063ffffffff168114613138576040517f08c379a000000000000000000000000000000000000000000000000000000000815260040161312f906148b3565b60405180910390fd5b61314181612c81565b613180576040517f08c379a000000000000000000000000000000000000000000000000000000000815260040161317790614945565b60405180910390fd5b600073ffffffffffffffffffffffffffffffffffffffff166008600085815260200190815260200160002060009054906101000a900473ffffffffffffffffffffffffffffffffffffffff1673ffffffffffffffffffffffffffffffffffffffff161415806132245750600073ffffffffffffffffffffffffffffffffffffffff1661320b84611625565b73ffffffffffffffffffffffffffffffffffffffff1614155b613263576040517f08c379a000000000000000000000000000000000000000000000000000000000815260040161325a906155c9565b60405180910390fd5b8373ffffffffffffffffffffffffffffffffffffffff166008600085815260200190815260200160002060009054906101000a900473ffffffffffffffffffffffffffffffffffffffff1673ffffffffffffffffffffffffffffffffffffffff16148061330357508373ffffffffffffffffffffffffffffffffffffffff166132eb84611625565b73ffffffffffffffffffffffffffffffffffffffff16145b91505092915050565b60098081111561331f5761331e6146fa565b5b816009811115613332576133316146fa565b5b148061336257506008600981111561334d5761334c6146fa565b5b8160098111156133605761335f6146fa565b5b145b8061339157506006600981111561337c5761337b6146fa565b5b81600981111561338f5761338e6146fa565b5b145b806133c05750600560098111156133ab576133aa6146fa565b5b8160098111156133be576133bd6146fa565b5b145b6133ff576040517f08c379a00000000000000000000000000000000000000000000000000000000081526004016133f69061565b565b60405180910390fd5b60006009811115613413576134126146fa565b5b826009811115613426576134256146fa565b5b1480613456575060016009811115613441576134406146fa565b5b826009811115613454576134536146fa565b5b145b613495576040517f08c379a000000000000000000000000000000000000000000000000000000000815260040161348c906156ed565b60405180910390fd5b600061349f61187b565b9050806008600086815260200190815260200160002060006101000a81548173ffffffffffffffffffffffffffffffffffffffff021916908373ffffffffffffffffffffffffffffffffffffffff160217905550600b54600960008773ffffffffffffffffffffffffffffffffffffffff1673ffffffffffffffffffffffffffffffffffffffff16815260200190815260200160002060008282546135449190615301565b9250508190555082600a600086815260200190815260200160002060006101000a81548160ff02191690836009811115613581576135806146fa565b5b02179055506006600981111561359a576135996146fa565b5b8260098111156135ad576135ac6146fa565b5b141561374357600d60019054906101000a900473ffffffffffffffffffffffffffffffffffffffff1673ffffffffffffffffffffffffffffffffffffffff1663a9059cbb86600c546040518363ffffffff167c010000000000000000000000000000000000000000000000000000000002815260040161362e9291906152d8565b6020604051808303816000875af115801561364d573d6000803e3d6000fd5b505050506040513d601f19601f820116820180604052508101906136719190614ec0565b50600d60019054906101000a900473ffffffffffffffffffffffffffffffffffffffff1673ffffffffffffffffffffffffffffffffffffffff1663a9059cbb82600c54600b546136c19190615301565b6040518363ffffffff167c01000000000000000000000000000000000000000000000000000000000281526004016136fa9291906152d8565b6020604051808303816000875af1158015613719573d6000803e3d6000fd5b505050506040513d601f19601f8201168201806040525081019061373d9190614ec0565b50613a00565b60056009811115613757576137566146fa565b5b82600981111561376a576137696146fa565b5b141561390b57600d60019054906101000a900473ffffffffffffffffffffffffffffffffffffffff1673ffffffffffffffffffffffffffffffffffffffff1663a9059cbb866002600b546137be919061573c565b6040518363ffffffff167c01000000000000000000000000000000000000000000000000000000000281526004016137f79291906152d8565b6020604051808303816000875af1158015613816573d6000803e3d6000fd5b505050506040513d601f19601f8201168201806040525081019061383a9190614ec0565b50600d60019054906101000a900473ffffffffffffffffffffffffffffffffffffffff1673ffffffffffffffffffffffffffffffffffffffff1663a9059cbb826002600b54613889919061573c565b6040518363ffffffff167c01000000000000000000000000000000000000000000000000000000000281526004016138c29291906152d8565b6020604051808303816000875af11580156138e1573d6000803e3d6000fd5b505050506040513d601f19601f820116820180604052508101906139059190614ec0565b506139ff565b8073ffffffffffffffffffffffffffffffffffffffff168573ffffffffffffffffffffffffffffffffffffffff16146139fe57600d60019054906101000a900473ffffffffffffffffffffffffffffffffffffffff1673ffffffffffffffffffffffffffffffffffffffff1663a9059cbb86600b546040518363ffffffff167c01000000000000000000000000000000000000000000000000000000000281526004016139b99291906152d8565b6020604051808303816000875af11580156139d8573d6000803e3d6000fd5b505050506040513d601f19601f820116820180604052508101906139fc9190614ec0565b505b5b5b7f038ac1625c51f9550a0ad1b4afe173b1ece06d88e5302c6d8cd2e7b36bda3689858584604051613a3393929190614eed565b60405180910390a15050505050565b60008060009054906101000a900473ffffffffffffffffffffffffffffffffffffffff169050816000806101000a81548173ffffffffffffffffffffffffffffffffffffffff021916908373ffffffffffffffffffffffffffffffffffffffff1602179055508173ffffffffffffffffffffffffffffffffffffffff168173ffffffffffffffffffffffffffffffffffffffff167f8be0079c531659141344cd1fd0a4f28419497f9722a3daafe3b4186f6b6457e060405160405180910390a35050565b600073ffffffffffffffffffffffffffffffffffffffff168273ffffffffffffffffffffffffffffffffffffffff161415613b76576040517f08c379a0000000000000000000000000000000000000000000000000000000008152600401613b6d906157b9565b60405180910390fd5b613b7f81612c81565b15613bbf576040517f08c379a0000000000000000000000000000000000000000000000000000000008152600401613bb690615825565b60405180910390fd5b816002600083815260200190815260200160002060006101000a81548173ffffffffffffffffffffffffffffffffffffffff021916908373ffffffffffffffffffffffffffffffffffffffff16021790555060076000815480929190613c2490615048565b9190505550808273ffffffffffffffffffffffffffffffffffffffff16600073ffffffffffffffffffffffffffffffffffffffff167fddf252ad1be2c89b69c2b068fc378daa952ba7f163c4a11628f55a4df523b3ef60405160405180910390a45050565b8173ffffffffffffffffffffffffffffffffffffffff168373ffffffffffffffffffffffffffffffffffffffff161415613cf8576040517f08c379a0000000000000000000000000000000000000000000000000000000008152600401613cef90615891565b60405180910390fd5b80600660008573ffffffffffffffffffffffffffffffffffffffff1673ffffffffffffffffffffffffffffffffffffffff16815260200190815260200160002060008473ffffffffffffffffffffffffffffffffffffffff1673ffffffffffffffffffffffffffffffffffffffff16815260200190815260200160002060006101000a81548160ff0219169083151502179055508173ffffffffffffffffffffffffffffffffffffffff168373ffffffffffffffffffffffffffffffffffffffff167f17307eab39ab6107e8899845ad3d59bd9653f200f220920489ca2b5937696c3183604051613de99190613f4d565b60405180910390a3505050565b828054613e0290614835565b90600052602060002090601f016020900481019282613e245760008555613e6b565b82601f10613e3d57805160ff1916838001178555613e6b565b82800160010185558215613e6b579182015b82811115613e6a578251825591602001919060010190613e4f565b5b509050613e789190613e7c565b5090565b5b80821115613e95576000816000905550600101613e7d565b5090565b6000604051905090565b600080fd5b600080fd5b60007fffffffff0000000000000000000000000000000000000000000000000000000082169050919050565b613ee281613ead565b8114613eed57600080fd5b50565b600081359050613eff81613ed9565b92915050565b600060208284031215613f1b57613f1a613ea3565b5b6000613f2984828501613ef0565b91505092915050565b60008115159050919050565b613f4781613f32565b82525050565b6000602082019050613f626000830184613f3e565b92915050565b600081519050919050565b600082825260208201905092915050565b60005b83811015613fa2578082015181840152602081019050613f87565b83811115613fb1576000848401525b50505050565b6000601f19601f8301169050919050565b6000613fd382613f68565b613fdd8185613f73565b9350613fed818560208601613f84565b613ff681613fb7565b840191505092915050565b6000602082019050818103600083015261401b8184613fc8565b905092915050565b6000819050919050565b61403681614023565b811461404157600080fd5b50565b6000813590506140538161402d565b92915050565b60006020828403121561406f5761406e613ea3565b5b600061407d84828501614044565b91505092915050565b600073ffffffffffffffffffffffffffffffffffffffff82169050919050565b60006140b182614086565b9050919050565b6140c1816140a6565b82525050565b60006020820190506140dc60008301846140b8565b92915050565b6140eb816140a6565b81146140f657600080fd5b50565b600081359050614108816140e2565b92915050565b6000806040838503121561412557614124613ea3565b5b6000614133858286016140f9565b925050602061414485828601614044565b9150509250929050565b600080fd5b600080fd5b7f4e487b7100000000000000000000000000000000000000000000000000000000600052604160045260246000fd5b61419082613fb7565b810181811067ffffffffffffffff821117156141af576141ae614158565b5b80604052505050565b60006141c2613e99565b90506141ce8282614187565b919050565b600067ffffffffffffffff8211156141ee576141ed614158565b5b6141f782613fb7565b9050602081019050919050565b82818337600083830152505050565b6000614226614221846141d3565b6141b8565b90508281526020810184848401111561424257614241614153565b5b61424d848285614204565b509392505050565b600082601f83011261426a5761426961414e565b5b813561427a848260208601614213565b91505092915050565b6000806040838503121561429a57614299613ea3565b5b60006142a885828601614044565b925050602083013567ffffffffffffffff8111156142c9576142c8613ea8565b5b6142d585828601614255565b9150509250929050565b6142e881614023565b82525050565b600060208201905061430360008301846142df565b92915050565b60008060006060848603121561432257614321613ea3565b5b6000614330868287016140f9565b9350506020614341868287016140f9565b925050604061435286828701614044565b9150509250925092565b60006020828403121561437257614371613ea3565b5b6000614380848285016140f9565b91505092915050565b600a811061439657600080fd5b50565b6000813590506143a881614389565b92915050565b600080604083850312156143c5576143c4613ea3565b5b600083013567ffffffffffffffff8111156143e3576143e2613ea8565b5b6143ef85828601614255565b925050602061440085828601614399565b9150509250929050565b600081519050919050565b600082825260208201905092915050565b6000819050602082019050919050565b61443f81614023565b82525050565b60006144518383614436565b60208301905092915050565b6000602082019050919050565b60006144758261440a565b61447f8185614415565b935061448a83614426565b8060005b838110156144bb5781516144a28882614445565b97506144ad8361445d565b92505060018101905061448e565b5085935050505092915050565b600060208201905081810360008301526144e2818461446a565b905092915050565b6144f381613f32565b81146144fe57600080fd5b50565b600081359050614510816144ea565b92915050565b6000806040838503121561452d5761452c613ea3565b5b600061453b858286016140f9565b925050602061454c85828601614501565b9150509250929050565b600067ffffffffffffffff82111561457157614570614158565b5b61457a82613fb7565b9050602081019050919050565b600061459a61459584614556565b6141b8565b9050828152602081018484840111156145b6576145b5614153565b5b6145c1848285614204565b509392505050565b600082601f8301126145de576145dd61414e565b5b81356145ee848260208601614587565b91505092915050565b6000806000806080858703121561461157614610613ea3565b5b600061461f878288016140f9565b9450506020614630878288016140f9565b935050604061464187828801614044565b925050606085013567ffffffffffffffff81111561466257614661613ea8565b5b61466e878288016145c9565b91505092959194509250565b6000806040838503121561469157614690613ea3565b5b600061469f85828601614044565b92505060206146b085828601614044565b9150509250929050565b600080604083850312156146d1576146d0613ea3565b5b60006146df858286016140f9565b92505060206146f0858286016140f9565b9150509250929050565b7f4e487b7100000000000000000000000000000000000000000000000000000000600052602160045260246000fd5b600a811061473a576147396146fa565b5b50565b600081905061474b82614729565b919050565b600061475b8261473d565b9050919050565b61476b81614750565b82525050565b60006020820190506147866000830184614762565b92915050565b6000819050919050565b60006147b16147ac6147a784614086565b61478c565b614086565b9050919050565b60006147c382614796565b9050919050565b60006147d5826147b8565b9050919050565b6147e5816147ca565b82525050565b600060208201905061480060008301846147dc565b92915050565b7f4e487b7100000000000000000000000000000000000000000000000000000000600052602260045260246000fd5b6000600282049050600182168061484d57607f821691505b6020821081141561486157614860614806565b5b50919050565b7f4552433732313a20506574204944206f7665726c6f6164732100000000000000600082015250565b600061489d601983613f73565b91506148a882614867565b602082019050919050565b600060208201905081810360008301526148cc81614890565b9050919050565b7f4552433732313a20517565727920666f72206e6f6e6578697374656e7420706560008201527f7400000000000000000000000000000000000000000000000000000000000000602082015250565b600061492f602183613f73565b915061493a826148d3565b604082019050919050565b6000602082019050818103600083015261495e81614922565b9050919050565b7f4552433732313a20617070726f76616c20746f2063757272656e74206f776e6560008201527f7200000000000000000000000000000000000000000000000000000000000000602082015250565b60006149c1602183613f73565b91506149cc82614965565b604082019050919050565b600060208201905081810360008301526149f0816149b4565b9050919050565b7f4552433732313a20617070726f76652063616c6c6572206973206e6f74206f7760008201527f6e6572206e6f7220617070726f76656420666f7220616c6c0000000000000000602082015250565b6000614a53603883613f73565b9150614a5e826149f7565b604082019050919050565b60006020820190508181036000830152614a8281614a46565b9050919050565b7f4f776e61626c653a2063616c6c6572206973206e6f7420746865206f776e6572600082015250565b6000614abf602083613f73565b9150614aca82614a89565b602082019050919050565b60006020820190508181036000830152614aee81614ab2565b9050919050565b7f4552433732313a207472616e736665722063616c6c6572206973206e6f74206f60008201527f776e6572206e6f7220617070726f766564000000000000000000000000000000602082015250565b6000614b51603183613f73565b9150614b5c82614af5565b604082019050919050565b60006020820190508181036000830152614b8081614b44565b9050919050565b7f4e6f7420617070726f76656420666f722061646f7074696f6e21000000000000600082015250565b6000614bbd601a83613f73565b9150614bc882614b87565b602082019050919050565b60006020820190508181036000830152614bec81614bb0565b9050919050565b7f50657420646f6573206e6f74206d617463682061646f70746572210000000000600082015250565b6000614c29601b83613f73565b9150614c3482614bf3565b602082019050919050565b60006020820190508181036000830152614c5881614c1c565b9050919050565b7f4e6f7468696e6720746f2062652077697468647261776e2066726f6d2074686560008201527f20736d61727420636f6e74726163742100000000000000000000000000000000602082015250565b6000614cbb603083613f73565b9150614cc682614c5f565b604082019050919050565b60006020820190508181036000830152614cea81614cae565b9050919050565b7f4e6f742072657175657374656420666f722061646f7074696f6e207965742100600082015250565b6000614d27601f83613f73565b9150614d3282614cf1565b602082019050919050565b60006020820190508181036000830152614d5681614d1a565b9050919050565b7f526571756573743a204e6f7420617661696c61626c6520666f722061646f707460008201527f696f6e2100000000000000000000000000000000000000000000000000000000602082015250565b6000614db9602483613f73565b9150614dc482614d5d565b604082019050919050565b60006020820190508181036000830152614de881614dac565b9050919050565b7f4e487b7100000000000000000000000000000000000000000000000000000000600052601160045260246000fd5b6000614e2982614023565b9150614e3483614023565b9250827fffffffffffffffffffffffffffffffffffffffffffffffffffffffffffffffff03821115614e6957614e68614def565b5b828201905092915050565b6000606082019050614e8960008301866140b8565b614e9660208301856140b8565b614ea360408301846142df565b949350505050565b600081519050614eba816144ea565b92915050565b600060208284031215614ed657614ed5613ea3565b5b6000614ee484828501614eab565b91505092915050565b6000606082019050614f0260008301866140b8565b614f0f60208301856142df565b614f1c6040830184614762565b949350505050565b7f4552433732313a206f776e657220717565727920666f72206e6f6e657869737460008201527f656e742070657400000000000000000000000000000000000000000000000000602082015250565b6000614f80602783613f73565b9150614f8b82614f24565b604082019050919050565b60006020820190508181036000830152614faf81614f73565b9050919050565b7f4552433732313a2062616c616e636520717565727920666f7220746865207a6560008201527f726f206164647265737300000000000000000000000000000000000000000000602082015250565b6000615012602a83613f73565b915061501d82614fb6565b604082019050919050565b6000602082019050818103600083015261504181615005565b9050919050565b600061505382614023565b91507fffffffffffffffffffffffffffffffffffffffffffffffffffffffffffffffff82141561508657615085614def565b5b600182019050919050565b7f41646f7074696f6e20737461747573206d75737420626520656974686572206160008201527f646f707461626c65206f72206e6f7420617661696c61626c6500000000000000602082015250565b60006150ed603983613f73565b91506150f882615091565b604082019050919050565b6000602082019050818103600083015261511c816150e0565b9050919050565b7f506574204944206f766572666c6f772100000000000000000000000000000000600082015250565b6000615159601083613f73565b915061516482615123565b602082019050919050565b600060208201905081810360008301526151888161514c565b9050919050565b7f4e487b7100000000000000000000000000000000000000000000000000000000600052603260045260246000fd5b7f5468652070657420697320616c72656164792061646f70746564210000000000600082015250565b60006151f4601b83613f73565b91506151ff826151be565b602082019050919050565b60006020820190508181036000830152615223816151e7565b9050919050565b7f5468652070657420697320616c72656164792061646f707461626c6521000000600082015250565b6000615260601d83613f73565b915061526b8261522a565b602082019050919050565b6000602082019050818103600083015261528f81615253565b9050919050565b6000815190506152a58161402d565b92915050565b6000602082840312156152c1576152c0613ea3565b5b60006152cf84828501615296565b91505092915050565b60006040820190506152ed60008301856140b8565b6152fa60208301846142df565b9392505050565b600061530c82614023565b915061531783614023565b92508282101561532a57615329614def565b5b828203905092915050565b7f4f776e61626c653a206e6577206f776e657220697320746865207a65726f206160008201527f6464726573730000000000000000000000000000000000000000000000000000602082015250565b6000615391602683613f73565b915061539c82615335565b604082019050919050565b600060208201905081810360008301526153c081615384565b9050919050565b7f4552433732313a206f70657261746f7220717565727920666f72206e6f6e657860008201527f697374656e742070657400000000000000000000000000000000000000000000602082015250565b6000615423602a83613f73565b915061542e826153c7565b604082019050919050565b6000602082019050818103600083015261545281615416565b9050919050565b7f4552433732313a207472616e736665722066726f6d20696e636f72726563742060008201527f6f776e6572000000000000000000000000000000000000000000000000000000602082015250565b60006154b5602583613f73565b91506154c082615459565b604082019050919050565b600060208201905081810360008301526154e4816154a8565b9050919050565b7f4552433732313a207472616e7366657220746f20746865207a65726f2061646460008201527f7265737300000000000000000000000000000000000000000000000000000000602082015250565b6000615547602483613f73565b9150615552826154eb565b604082019050919050565b600060208201905081810360008301526155768161553a565b9050919050565b7f50657420646f6573206e6f742065786973742e00000000000000000000000000600082015250565b60006155b3601383613f73565b91506155be8261557d565b602082019050919050565b600060208201905081810360008301526155e2816155a6565b9050919050565b7f54686520726561736f6e2073686f756c6420626520612072656d6f76616c207360008201527f7461746521000000000000000000000000000000000000000000000000000000602082015250565b6000615645602583613f73565b9150615650826155e9565b604082019050919050565b6000602082019050818103600083015261567481615638565b9050919050565b7f546865207374617475732073686f756c6420626520612072656d6f76616c207360008201527f7461746521000000000000000000000000000000000000000000000000000000602082015250565b60006156d7602583613f73565b91506156e28261567b565b604082019050919050565b60006020820190508181036000830152615706816156ca565b9050919050565b7f4e487b7100000000000000000000000000000000000000000000000000000000600052601260045260246000fd5b600061574782614023565b915061575283614023565b9250826157625761576161570d565b5b828204905092915050565b7f4552433732313a206d696e7420746f20746865207a65726f2061646472657373600082015250565b60006157a3602083613f73565b91506157ae8261576d565b602082019050919050565b600060208201905081810360008301526157d281615796565b9050919050565b7f4552433732313a2070657420616c7265616479206d696e746564000000000000600082015250565b600061580f601a83613f73565b915061581a826157d9565b602082019050919050565b6000602082019050818103600083015261583e81615802565b9050919050565b7f4552433732313a20617070726f766520746f2063616c6c657200000000000000600082015250565b600061587b601983613f73565b915061588682615845565b602082019050919050565b600060208201905081810360008301526158aa8161586e565b905091905056fea2646970667358221220c3977d793c842bac1750425ee07c37b920a081770b558633d1294d2462115ff164736f6c634300080b0033",
  "immutableReferences": {},
  "source": "// SPDX-License-Identifier: MIT\r\n\r\nimport \"./ShelterNOW.sol\";\r\nimport \"@openzeppelin/contracts/access/Ownable.sol\";\r\nimport \"./Pet.sol\";\r\n\r\npragma solidity ^0.8.0;\r\n\r\n/// @author Dylon Wong Chung Yee\r\n/// @title An adoption contract to facilitate and keep track of adoptions in an animal shelter.\r\ncontract Adoption is Ownable, Pet {\r\n    // Mapping from pet ID to temporary adopter.\r\n    mapping(uint256 => address) private _tempAdopters;\r\n\r\n    // Mapping from adopters to their deposit.\r\n    mapping(address => uint256) private _adopterToDeposit;\r\n\r\n    // Mapping from pet ID to the pet's adoption state.\r\n    mapping(uint256 => AdoptionState) private _petToAdoptionState;\r\n\r\n    // An adoption fee to be paid upon confirmation.\r\n    uint256 private _adoptionFee;\r\n\r\n    // A refund fee for a unsuccessful adoption.\r\n    uint256 private _penaltyRefundFee;\r\n\r\n    // SNOW decimals;\r\n    uint8 private _decimals;\r\n\r\n    // The contract address to the SNOW.\r\n    ShelterNOW public SNOW;\r\n\r\n    /// REJECTED, CANCELLED, EUTHANISED and REMOVED are not assignable to the _petToAdoptionState, only for event emission.\r\n    /// The other enum shows the state of the pet in the adoption procedure.\r\n    enum AdoptionState {\r\n        NOTAVAIL,\r\n        ADOPTABLE,\r\n        LOCKED,\r\n        APPROVED,\r\n        ADOPTED,\r\n        REJECTED,\r\n        CANCELLED,\r\n        ADDED,\r\n        EUTHANISED,\r\n        REMOVED\r\n    }\r\n\r\n    // An event to notify stage changes of an animal.\r\n    event AdoptionStatus(address adopter, uint256 petID, AdoptionState status);\r\n\r\n    // An event to notify tips received from adoption fee.\r\n    event TipsReceived(address adopter, address owner, uint256 amount);\r\n\r\n    /**\r\n     * @dev Initializes the contract by setting a token contract address to the adoption contract.\r\n     * This contract should be excluded from the reflection such that it does not get taxed for refund.\r\n     *\r\n     */\r\n    constructor(address snowAdd) {\r\n        SNOW = ShelterNOW(snowAdd);\r\n        _decimals = SNOW.decimals();\r\n\r\n        /// An adoption fee to be paid upon confirmation, defaults to 10000 SNOW (without decimals) gross amount.\r\n        /// 4% of the adoption fee will be taxed.\r\n        _adoptionFee = _normaliseSNOW(1 * 10**4);\r\n\r\n        // A refund fee for a unsuccessful adoption, defaults to 2000 SNOW gross amount.\r\n        _penaltyRefundFee = _normaliseSNOW(2 * 10**3);\r\n    }\r\n\r\n    /**\r\n     * @dev Add a new pet to the blockchain.\r\n     * The pet must be set to either adoptable or not.\r\n     * This function should only be called by the animal shelter.\r\n     *\r\n     * @param URI_: An URI that links to the metadata of the pet.\r\n     * @param newStatus: The status of adoption of the new pet.\r\n     */\r\n    function addPet(string memory URI_, AdoptionState newStatus)\r\n        public\r\n        onlyOwner\r\n    {\r\n        require(\r\n            newStatus == AdoptionState.ADOPTABLE ||\r\n                newStatus == AdoptionState.NOTAVAIL,\r\n            \"Adoption status must be either adoptable or not available\"\r\n        );\r\n\r\n        uint256 newPetID = totalSupply();\r\n        require(newPetID == uint256(uint32(newPetID)), \"Pet ID overflow!\");\r\n\r\n        _mint(owner(), newPetID);\r\n        setTokenURI(newPetID, URI_);\r\n\r\n        if (newStatus == AdoptionState.ADOPTABLE)\r\n            _petToAdoptionState[newPetID] = newStatus;\r\n        _tempAdopters[newPetID] = msg.sender;\r\n\r\n        emit AdoptionStatus(msg.sender, newPetID, AdoptionState.ADDED);\r\n    }\r\n\r\n    /**\r\n     * @dev Request a pet to be adopted. The pet must be in an adoptable status.\r\n     * Besides that a fixed amount of deposit will be collected to prevent abusive request application.\r\n     *\r\n     * **NOTE**: The adopter must approve the contract as a spender with an allowance as the `_adoptionFee`,\r\n     * to perform a successful transaction via ERC-20 standard.\r\n     * This should be done in the front-end using the SNOW contract directly\r\n     * because `msg.sender` will be the adoption contract if {SNOW.approve} is called here.\r\n     *\r\n     * @param petID: The pet ID to be adopted.\r\n     */\r\n    function requestAdoption(uint256 petID) public petIDIsValid(petID) {\r\n        require(\r\n            _petToAdoptionState[petID] == AdoptionState.ADOPTABLE,\r\n            \"Request: Not available for adoption!\"\r\n        );\r\n\r\n        address adopter = msg.sender;\r\n\r\n        _adopterToDeposit[adopter] += _adoptionFee;\r\n        _petToAdoptionState[petID] = AdoptionState.LOCKED;\r\n\r\n        _tempAdopters[petID] = adopter;\r\n\r\n        SNOW.transferFrom(adopter, address(this), _adoptionFee);\r\n\r\n        emit AdoptionStatus(adopter, petID, AdoptionState.LOCKED);\r\n    }\r\n\r\n    /**\r\n     * @dev Approve an adoption request.\r\n     * The pet must be requested for adoption and still in LOCKED state.\r\n     * This suggests that the pet is still waiting for an approval.\r\n     * This function also requires the `adopter` parameter to match the actual adopter requesting.\r\n     * This function should only be called by the animal shelter.\r\n     *\r\n     * @param adopter: The address of the adopter.\r\n     * @param petID: The pet ID to be adopted.\r\n     */\r\n    function approveAdoption(address adopter, uint256 petID)\r\n        public\r\n        onlyOwner\r\n        petIDIsValid(petID)\r\n    {\r\n        require(\r\n            _petToAdoptionState[petID] == AdoptionState.LOCKED,\r\n            \"Not requested for adoption yet!\"\r\n        );\r\n\r\n        require(_adopterMatches(adopter, petID), \"Pet does not match adopter!\");\r\n\r\n        approve(adopter, petID);\r\n\r\n        _petToAdoptionState[petID] = AdoptionState.APPROVED;\r\n        emit AdoptionStatus(adopter, petID, AdoptionState.APPROVED);\r\n    }\r\n\r\n    /**\r\n     * @dev Reject an adoption application request. The requirements of this function is same as `approveAdoption`.\r\n     * This action is at the same phase as `approveAdoption` in the adoption procedure.\r\n     * The pet will be set back to `ADOPTABLE` state and this function will emit a `REJECTED` status.\r\n     * The pet will also be removed from the associated adopter.\r\n     *\r\n     * @param adopter: The adopter who applied for adoption.\r\n     * @param petID: The associated pet ID applied for adoption.\r\n     */\r\n    function rejectAdoption(address adopter, uint256 petID)\r\n        public\r\n        onlyOwner\r\n        petIDIsValid(petID)\r\n    {\r\n        require(\r\n            _petToAdoptionState[petID] == AdoptionState.LOCKED,\r\n            \"Not requested for adoption yet!\"\r\n        );\r\n\r\n        require(_adopterMatches(adopter, petID), \"Pet does not match adopter!\");\r\n\r\n        _resetAdoption(\r\n            adopter,\r\n            petID,\r\n            AdoptionState.ADOPTABLE,\r\n            AdoptionState.REJECTED\r\n        );\r\n    }\r\n\r\n    /**\r\n     * @dev Cancel an approved adoption. This function should be called by an adopter.\r\n     * The adopter can cancel their adoptiona at anytime between approval and confirmation.\r\n     * The pet will be set to adoptable state and removed from the associated adopter.\r\n     *\r\n     * @param petID: The pet adoption to be cancelled.\r\n     */\r\n    function cancelAdoption(uint256 petID) public petIDIsValid(petID) {\r\n        // The pet must be approved.\r\n        require(\r\n            _petToAdoptionState[petID] == AdoptionState.APPROVED,\r\n            \"Not approved for adoption!\"\r\n        );\r\n\r\n        require(\r\n            _adopterMatches(msg.sender, petID),\r\n            \"Pet does not match adopter!\"\r\n        );\r\n\r\n        _resetAdoption(\r\n            msg.sender,\r\n            petID,\r\n            AdoptionState.ADOPTABLE,\r\n            AdoptionState.CANCELLED\r\n        );\r\n    }\r\n\r\n    /**\r\n     * @dev Confirm an approved adoption application request. The requires the approveAdoption to be called on the adoption before.\r\n     * This function receives optional tip from the adopter upon confirmation.\r\n     * The pet will be set back to `ADOPTED` state and this function will emit a `ADOPTED` status.\r\n     * Total amount received by the animal shelter is `_adoptionFee + tipAmount - _refundFee`\r\n     *\r\n     * If a tip is paid, the `TipsReceived` event will be emitted.\r\n     *\r\n     * NOTE: The {SNOW.approve} function is needed here for payment of the adoption fee (See line 166).\r\n     * The allowance should be same as `amount` including tips.\r\n     *\r\n     * @param petID: The pet ID applied for adoption.\r\n     * @param tipAmount: The amount of tip fee to be paid by the adopter.\r\n     */\r\n    function confirmAdoption(uint256 petID, uint256 tipAmount)\r\n        public\r\n        petIDIsValid(petID)\r\n    {\r\n        // The pet must be approved.\r\n        require(\r\n            _petToAdoptionState[petID] == AdoptionState.APPROVED,\r\n            \"Not approved for adoption!\"\r\n        );\r\n\r\n        address adopter = msg.sender;\r\n        address owner = owner();\r\n\r\n        require(_adopterMatches(adopter, petID), \"Pet does not match adopter!\");\r\n\r\n        _petToAdoptionState[petID] = AdoptionState.ADOPTED;\r\n        _adopterToDeposit[adopter] -= _adoptionFee;\r\n\r\n        safeTransferFrom(owner, adopter, petID);\r\n\r\n        SNOW.transfer(adopter, _adoptionFee);\r\n\r\n        if (tipAmount > 0) {\r\n            SNOW.transferFrom(adopter, owner, tipAmount);\r\n            emit TipsReceived(adopter, owner, tipAmount);\r\n        }\r\n        emit AdoptionStatus(adopter, petID, AdoptionState.ADOPTED);\r\n    }\r\n\r\n    /**\r\n     * @dev Withdraw money from the smart contract if any.\r\n     */\r\n    function withdraw() public payable onlyOwner {\r\n        require(\r\n            address(this).balance > 0,\r\n            \"Nothing to be withdrawn from the smart contract!\"\r\n        );\r\n        payable(owner()).transfer(address(this).balance);\r\n    }\r\n\r\n    /**\r\n     * @dev Withdraw money from the smart contract if any.\r\n     */\r\n    function withdrawSNOW() public onlyOwner {\r\n        uint256 snowBal = SNOW.balanceOf(address(this));\r\n        require(\r\n            snowBal > 0,\r\n            \"Nothing to be withdrawn from the smart contract!\"\r\n        );\r\n        SNOW.transfer(owner(), snowBal);\r\n    }\r\n\r\n    /**\r\n     * @dev Get the adoption fee of the animal shelter.\r\n     *\r\n     * @return The adoption fee.\r\n     */\r\n    function getAdoptionFee() public view returns (uint256) {\r\n        return _adoptionFee;\r\n    }\r\n\r\n    /**\r\n     * @dev Get the penalty refund fee of the animal shelter.\r\n     *\r\n     * @return The penalty refund fee.\r\n     */\r\n    function getPenaltyRefundFee() public view returns (uint256) {\r\n        return _penaltyRefundFee;\r\n    }\r\n\r\n    /**\r\n     * @dev Get the adoption state of a pet (including non available one).\r\n     *\r\n     * @param petID: The pet ID to be queried.\r\n     *\r\n     * @return The adoption state.\r\n     */\r\n    function getAdoptionState(uint256 petID)\r\n        public\r\n        view\r\n        petIDIsValid(petID)\r\n        returns (AdoptionState)\r\n    {\r\n        return _petToAdoptionState[petID];\r\n    }\r\n\r\n    /**\r\n     * @dev Get the temporary adopter of a pet.\r\n     *\r\n     * @param petID: The pet ID to be queried.\r\n     *\r\n     * @return The temporary adopter.\r\n     */\r\n    function getTempAdopterOf(uint256 petID)\r\n        public\r\n        view\r\n        petIDIsValid(petID)\r\n        returns (address)\r\n    {\r\n        return _tempAdopters[petID];\r\n    }\r\n\r\n    /**\r\n     * @dev Get the amount of deposit locked of an adopter.\r\n     *\r\n     * @param adopter: The adopter to query.\r\n     *\r\n     * @return The total deposit locked.\r\n     */\r\n    function getAdopterDeposit(address adopter) public view returns (uint256) {\r\n        return _adopterToDeposit[adopter];\r\n    }\r\n\r\n    /**\r\n     * @dev Set a pet to be adoptable from a not adoptable state. Only owner can call this function.\r\n     *\r\n     * @param petID: The pet ID to be queried.\r\n     *\r\n     */\r\n    function setPetAdoptable(uint256 petID)\r\n        public\r\n        onlyOwner\r\n        petIDIsValid(petID)\r\n    {\r\n        require(\r\n            _petToAdoptionState[petID] != AdoptionState.ADOPTED,\r\n            \"The pet is already adopted!\"\r\n        );\r\n        require(\r\n            _petToAdoptionState[petID] == AdoptionState.NOTAVAIL,\r\n            \"The pet is already adoptable!\"\r\n        );\r\n        _petToAdoptionState[petID] = AdoptionState.ADOPTABLE;\r\n        emit AdoptionStatus(owner(), petID, AdoptionState.ADOPTABLE);\r\n    }\r\n\r\n    /**\r\n     * @dev Set the token URI of a pet.\r\n     *\r\n     * @param petID: Pet ID to be modified.\r\n     * @param tokenURI_: Token URI to be set.\r\n     */\r\n    function setTokenURI(uint256 petID, string memory tokenURI_)\r\n        public\r\n        petIDIsValid(petID)\r\n        onlyOwner\r\n    {\r\n        require(\r\n            _petToAdoptionState[petID] != AdoptionState.ADOPTED ||\r\n                _petToAdoptionState[petID] != AdoptionState.EUTHANISED\r\n        );\r\n        _setTokenURI(petID, tokenURI_);\r\n    }\r\n\r\n    /**\r\n     * @dev Add decimals to the base amount of SNOW.\r\n     *\r\n     * @param amount: Amount of SNOW to be normalised.\r\n     *\r\n     * @return SNOW with 9 decimals.\r\n     */\r\n    function _normaliseSNOW(uint256 amount) internal view returns (uint256) {\r\n        return amount * (10**_decimals);\r\n    }\r\n\r\n    /**\r\n     * @dev Check if given adopter matches the pet ID.\r\n     *\r\n     * @param adopter: The adopter's address.\r\n     * @param petID: The pet ID adopted.\r\n     *\r\n     * @return Match or not.\r\n     */\r\n    function _adopterMatches(address adopter, uint256 petID)\r\n        internal\r\n        view\r\n        petIDIsValid(petID)\r\n        returns (bool)\r\n    {\r\n        // Pet should exists.\r\n        require(\r\n            _tempAdopters[petID] != address(0) || ownerOf(petID) != address(0),\r\n            \"Pet does not exist.\"\r\n        );\r\n        return _tempAdopters[petID] == adopter || ownerOf(petID) == adopter;\r\n    }\r\n\r\n    /**\r\n     * @dev Reset an adoption application request back to adoptable state.\r\n     * The pet will be set back to `ADOPTABLE` state and this function will emit either `CANCELLED` or `REJECTED` status.\r\n     * The pet will also be removed from the associated adopter.\r\n     * The adopter will be refunded a small amount of SNOW as stated in `_penaltyRefundFee`,\r\n     * the rest is donated to the animal shelter as a penalty.\r\n     *\r\n     * @param adopter: The adopter who applied for adoption.\r\n     * @param petID: The associated pet ID applied for adoption.\r\n     * @param reason: The reason of pet adoption reset.\r\n     */\r\n    function _resetAdoption(\r\n        address adopter,\r\n        uint256 petID,\r\n        AdoptionState status,\r\n        AdoptionState reason\r\n    ) private {\r\n        require(\r\n            reason == AdoptionState.REMOVED ||\r\n                reason == AdoptionState.EUTHANISED ||\r\n                reason == AdoptionState.CANCELLED ||\r\n                reason == AdoptionState.REJECTED,\r\n            \"The reason should be a removal state!\"\r\n        );\r\n        require(\r\n            status == AdoptionState.NOTAVAIL ||\r\n                status == AdoptionState.ADOPTABLE,\r\n            \"The status should be a removal state!\"\r\n        );\r\n\r\n        address owner_ = owner();\r\n\r\n        _tempAdopters[petID] = owner_;\r\n        _adopterToDeposit[adopter] -= _adoptionFee;\r\n        _petToAdoptionState[petID] = status;\r\n        if (reason == AdoptionState.CANCELLED) {\r\n            SNOW.transfer(adopter, _penaltyRefundFee);\r\n            SNOW.transfer(owner_, (_adoptionFee - _penaltyRefundFee));\r\n        } else if (reason == AdoptionState.REJECTED) {\r\n            SNOW.transfer(adopter, _adoptionFee / 2);\r\n            SNOW.transfer(owner_, (_adoptionFee / 2));\r\n        } else {\r\n            if (adopter != owner_) SNOW.transfer(adopter, _adoptionFee);\r\n        }\r\n\r\n        emit AdoptionStatus(adopter, petID, reason);\r\n    }\r\n}\r\n",
  "sourcePath": "E:\\Users\\user\\Documents\\Homework\\Year 3 Comp\\CSC3632\\animal-shelters-dapp\\contracts\\Adoption.sol",
  "compiler": {
    "name": "solc",
    "version": "0.8.11+commit.d7f03943.Emscripten.clang"
  },
  "schemaVersion": "3.4.7",
  "updatedAt": "2022-04-26T13:39:21.490Z",
  "networkType": "ethereum",
  "devdoc": {
    "author": "Dylon Wong Chung Yee",
    "kind": "dev",
    "methods": {
      "addPet(string,uint8)": {
        "details": "Add a new pet to the blockchain. The pet must be set to either adoptable or not. This function should only be called by the animal shelter.",
        "params": {
          "URI_": ": An URI that links to the metadata of the pet.",
          "newStatus": ": The status of adoption of the new pet."
        }
      },
      "approve(address,uint256)": {
        "details": "Gives permission to `to` to transfer `tokenId` token to another account. The approval is cleared when the token is transferred. Only a single account can be approved at a time, so approving the zero address clears previous approvals. Requirements: - The caller must own the token or be an approved operator. - `tokenId` must exist. Emits an {Approval} event."
      },
      "approveAdoption(address,uint256)": {
        "details": "Approve an adoption request. The pet must be requested for adoption and still in LOCKED state. This suggests that the pet is still waiting for an approval. This function also requires the `adopter` parameter to match the actual adopter requesting. This function should only be called by the animal shelter.",
        "params": {
          "adopter": ": The address of the adopter.",
          "petID": ": The pet ID to be adopted."
        }
      },
      "balanceOf(address)": {
        "details": "Returns the number of tokens in ``owner``'s account."
      },
      "cancelAdoption(uint256)": {
        "details": "Cancel an approved adoption. This function should be called by an adopter. The adopter can cancel their adoptiona at anytime between approval and confirmation. The pet will be set to adoptable state and removed from the associated adopter.",
        "params": {
          "petID": ": The pet adoption to be cancelled."
        }
      },
      "confirmAdoption(uint256,uint256)": {
        "details": "Confirm an approved adoption application request. The requires the approveAdoption to be called on the adoption before. This function receives optional tip from the adopter upon confirmation. The pet will be set back to `ADOPTED` state and this function will emit a `ADOPTED` status. Total amount received by the animal shelter is `_adoptionFee + tipAmount - _refundFee` If a tip is paid, the `TipsReceived` event will be emitted. NOTE: The {SNOW.approve} function is needed here for payment of the adoption fee (See line 166). The allowance should be same as `amount` including tips.",
        "params": {
          "petID": ": The pet ID applied for adoption.",
          "tipAmount": ": The amount of tip fee to be paid by the adopter."
        }
      },
      "constructor": {
        "details": "Initializes the contract by setting a token contract address to the adoption contract. This contract should be excluded from the reflection such that it does not get taxed for refund."
      },
      "getAdopterDeposit(address)": {
        "details": "Get the amount of deposit locked of an adopter.",
        "params": {
          "adopter": ": The adopter to query."
        },
        "returns": {
          "_0": "The total deposit locked."
        }
      },
      "getAdoptionFee()": {
        "details": "Get the adoption fee of the animal shelter.",
        "returns": {
          "_0": "The adoption fee."
        }
      },
      "getAdoptionState(uint256)": {
        "details": "Get the adoption state of a pet (including non available one).",
        "params": {
          "petID": ": The pet ID to be queried."
        },
        "returns": {
          "_0": "The adoption state."
        }
      },
      "getApproved(uint256)": {
        "details": "Returns the account approved for `tokenId` token. Requirements: - `tokenId` must exist."
      },
      "getPenaltyRefundFee()": {
        "details": "Get the penalty refund fee of the animal shelter.",
        "returns": {
          "_0": "The penalty refund fee."
        }
      },
      "getTempAdopterOf(uint256)": {
        "details": "Get the temporary adopter of a pet.",
        "params": {
          "petID": ": The pet ID to be queried."
        },
        "returns": {
          "_0": "The temporary adopter."
        }
      },
      "isApprovedForAll(address,address)": {
        "details": "Returns if the `operator` is allowed to manage all of the assets of `owner`. See {setApprovalForAll}"
      },
      "name()": {
        "details": "Get token name.",
        "returns": {
          "_0": "Token name."
        }
      },
      "owner()": {
        "details": "Returns the address of the current owner."
      },
      "ownerOf(uint256)": {
        "details": "Returns the owner of the `tokenId` token. Requirements: - `tokenId` must exist."
      },
      "pets()": {
        "details": "Get the entire pets record in the animal shelter.",
        "returns": {
          "_0": "The pets record."
        }
      },
      "rejectAdoption(address,uint256)": {
        "details": "Reject an adoption application request. The requirements of this function is same as `approveAdoption`. This action is at the same phase as `approveAdoption` in the adoption procedure. The pet will be set back to `ADOPTABLE` state and this function will emit a `REJECTED` status. The pet will also be removed from the associated adopter.",
        "params": {
          "adopter": ": The adopter who applied for adoption.",
          "petID": ": The associated pet ID applied for adoption."
        }
      },
      "renounceOwnership()": {
        "details": "Leaves the contract without owner. It will not be possible to call `onlyOwner` functions anymore. Can only be called by the current owner. NOTE: Renouncing ownership will leave the contract without an owner, thereby removing any functionality that is only available to the owner."
      },
      "requestAdoption(uint256)": {
        "details": "Request a pet to be adopted. The pet must be in an adoptable status. Besides that a fixed amount of deposit will be collected to prevent abusive request application. **NOTE**: The adopter must approve the contract as a spender with an allowance as the `_adoptionFee`, to perform a successful transaction via ERC-20 standard. This should be done in the front-end using the SNOW contract directly because `msg.sender` will be the adoption contract if {SNOW.approve} is called here.",
        "params": {
          "petID": ": The pet ID to be adopted."
        }
      },
      "safeTransferFrom(address,address,uint256)": {
        "details": "Safely transfers `tokenId` token from `from` to `to`, checking first that contract recipients are aware of the ERC721 protocol to prevent tokens from being forever locked. Requirements: - `from` cannot be the zero address. - `to` cannot be the zero address. - `tokenId` token must exist and be owned by `from`. - If the caller is not `from`, it must be have been allowed to move this token by either {approve} or {setApprovalForAll}. - If `to` refers to a smart contract, it must implement {IERC721Receiver-onERC721Received}, which is called upon a safe transfer. Emits a {Transfer} event."
      },
      "safeTransferFrom(address,address,uint256,bytes)": {
        "details": "Safely transfers `tokenId` token from `from` to `to`. Requirements: - `from` cannot be the zero address. - `to` cannot be the zero address. - `tokenId` token must exist and be owned by `from`. - If the caller is not `from`, it must be approved to move this token by either {approve} or {setApprovalForAll}. - If `to` refers to a smart contract, it must implement {IERC721Receiver-onERC721Received}, which is called upon a safe transfer. Emits a {Transfer} event."
      },
      "setApprovalForAll(address,bool)": {
        "details": "Approve or remove `operator` as an operator for the caller. Operators can call {transferFrom} or {safeTransferFrom} for any token owned by the caller. Requirements: - The `operator` cannot be the caller. Emits an {ApprovalForAll} event."
      },
      "setPetAdoptable(uint256)": {
        "details": "Set a pet to be adoptable from a not adoptable state. Only owner can call this function.",
        "params": {
          "petID": ": The pet ID to be queried."
        }
      },
      "setTokenURI(uint256,string)": {
        "details": "Set the token URI of a pet.",
        "params": {
          "petID": ": Pet ID to be modified.",
          "tokenURI_": ": Token URI to be set."
        }
      },
      "supportsInterface(bytes4)": {
        "details": "Returns true if this contract implements the interface defined by `interfaceId`. See the corresponding https://eips.ethereum.org/EIPS/eip-165#how-interfaces-are-identified[EIP section] to learn more about how these ids are created. This function call must use less than 30 000 gas."
      },
      "symbol()": {
        "details": "Get token symbol.",
        "returns": {
          "_0": "Token symbol."
        }
      },
      "tokenURI(uint256)": {
        "details": "Get token URI.",
        "params": {
          "petID": ": Pet ID to query."
        },
        "returns": {
          "_0": "Token URI."
        }
      },
      "totalSupply()": {
        "details": "Get the total number of pets.",
        "returns": {
          "_0": "The pet count."
        }
      },
      "transferFrom(address,address,uint256)": {
        "details": "Transfers `tokenId` token from `from` to `to`. WARNING: Usage of this method is discouraged, use {safeTransferFrom} whenever possible. Requirements: - `from` cannot be the zero address. - `to` cannot be the zero address. - `tokenId` token must be owned by `from`. - If the caller is not `from`, it must be approved to move this token by either {approve} or {setApprovalForAll}. Emits a {Transfer} event."
      },
      "transferOwnership(address)": {
        "details": "Transfers ownership of the contract to a new account (`newOwner`). Can only be called by the current owner."
      },
      "withdraw()": {
        "details": "Withdraw money from the smart contract if any."
      },
      "withdrawSNOW()": {
        "details": "Withdraw money from the smart contract if any."
      }
    },
    "title": "An adoption contract to facilitate and keep track of adoptions in an animal shelter.",
    "version": 1
  },
  "userdoc": {
    "kind": "user",
    "methods": {},
    "version": 1
  }
}