{
  "contractName": "Donation",
  "abi": [
    {
      "inputs": [
        {
          "internalType": "address",
          "name": "_SNOWaddr",
          "type": "address"
        }
      ],
      "stateMutability": "nonpayable",
      "type": "constructor"
    },
    {
      "anonymous": false,
      "inputs": [
        {
          "indexed": false,
          "internalType": "address",
          "name": "donor",
          "type": "address"
        },
        {
          "indexed": false,
          "internalType": "enum Donation.Token",
          "name": "tokenType",
          "type": "uint8"
        },
        {
          "indexed": false,
          "internalType": "uint256",
          "name": "amount",
          "type": "uint256"
        },
        {
          "indexed": false,
          "internalType": "string",
          "name": "message",
          "type": "string"
        }
      ],
      "name": "Donate",
      "type": "event"
    },
    {
      "anonymous": false,
      "inputs": [
        {
          "indexed": true,
          "internalType": "address",
          "name": "previousOwner",
          "type": "address"
        },
        {
          "indexed": true,
          "internalType": "address",
          "name": "newOwner",
          "type": "address"
        }
      ],
      "name": "OwnershipTransferred",
      "type": "event"
    },
    {
      "anonymous": false,
      "inputs": [
        {
          "indexed": false,
          "internalType": "enum Donation.Token",
          "name": "tokenType",
          "type": "uint8"
        },
        {
          "indexed": false,
          "internalType": "uint256",
          "name": "amount",
          "type": "uint256"
        }
      ],
      "name": "Withdraw",
      "type": "event"
    },
    {
      "inputs": [],
      "name": "owner",
      "outputs": [
        {
          "internalType": "address",
          "name": "",
          "type": "address"
        }
      ],
      "stateMutability": "view",
      "type": "function",
      "constant": true
    },
    {
      "inputs": [],
      "name": "renounceOwnership",
      "outputs": [],
      "stateMutability": "nonpayable",
      "type": "function"
    },
    {
      "inputs": [
        {
          "internalType": "address",
          "name": "newOwner",
          "type": "address"
        }
      ],
      "name": "transferOwnership",
      "outputs": [],
      "stateMutability": "nonpayable",
      "type": "function"
    },
    {
      "inputs": [
        {
          "internalType": "uint256",
          "name": "amount",
          "type": "uint256"
        },
        {
          "internalType": "string",
          "name": "message",
          "type": "string"
        }
      ],
      "name": "donateSNOW",
      "outputs": [],
      "stateMutability": "nonpayable",
      "type": "function"
    },
    {
      "inputs": [
        {
          "internalType": "string",
          "name": "message",
          "type": "string"
        }
      ],
      "name": "donateETH",
      "outputs": [],
      "stateMutability": "payable",
      "type": "function",
      "payable": true
    },
    {
      "inputs": [
        {
          "internalType": "enum Donation.Token",
          "name": "tokenType",
          "type": "uint8"
        }
      ],
      "name": "withdraw",
      "outputs": [],
      "stateMutability": "payable",
      "type": "function",
      "payable": true
    },
    {
      "inputs": [],
      "name": "getDonors",
      "outputs": [
        {
          "internalType": "address[]",
          "name": "",
          "type": "address[]"
        }
      ],
      "stateMutability": "view",
      "type": "function",
      "constant": true
    },
    {
      "inputs": [
        {
          "internalType": "enum Donation.Token",
          "name": "tokenType",
          "type": "uint8"
        }
      ],
      "name": "getTotalDonation",
      "outputs": [
        {
          "internalType": "uint256",
          "name": "",
          "type": "uint256"
        }
      ],
      "stateMutability": "view",
      "type": "function",
      "constant": true
    },
    {
      "inputs": [
        {
          "internalType": "address",
          "name": "donor",
          "type": "address"
        },
        {
          "internalType": "enum Donation.Token",
          "name": "tokenType",
          "type": "uint8"
        }
      ],
      "name": "getDonationOfDonor",
      "outputs": [
        {
          "internalType": "uint256",
          "name": "",
          "type": "uint256"
        }
      ],
      "stateMutability": "view",
      "type": "function",
      "constant": true
    }
  ],
  "bytecode": "0x60806040523480156200001157600080fd5b5060405162001d6338038062001d638339818101604052810190620000379190620001e7565b6200006962000054620000b1640100000000026401000000009004565b620000b9640100000000026401000000009004565b80600160006101000a81548173ffffffffffffffffffffffffffffffffffffffff021916908373ffffffffffffffffffffffffffffffffffffffff1602179055505062000219565b600033905090565b60008060009054906101000a900473ffffffffffffffffffffffffffffffffffffffff169050816000806101000a81548173ffffffffffffffffffffffffffffffffffffffff021916908373ffffffffffffffffffffffffffffffffffffffff1602179055508173ffffffffffffffffffffffffffffffffffffffff168173ffffffffffffffffffffffffffffffffffffffff167f8be0079c531659141344cd1fd0a4f28419497f9722a3daafe3b4186f6b6457e060405160405180910390a35050565b600080fd5b600073ffffffffffffffffffffffffffffffffffffffff82169050919050565b6000620001af8262000182565b9050919050565b620001c181620001a2565b8114620001cd57600080fd5b50565b600081519050620001e181620001b6565b92915050565b6000602082840312156200020057620001ff6200017d565b5b60006200021084828501620001d0565b91505092915050565b611b3a80620002296000396000f3fe6080604052600436106100a3576000357c01000000000000000000000000000000000000000000000000000000009004806396f300d41161007657806396f300d41461012f578063c6ab5d901461015a578063d3f428b514610176578063eff4c3a5146101b3578063f2fde38b146101f0576100a3565b80636e7dd40b146100a8578063715018a6146100d15780638da5cb5b146100e85780638ed1696314610113575b600080fd5b3480156100b457600080fd5b506100cf60048036038101906100ca919061125a565b610219565b005b3480156100dd57600080fd5b506100e66104f8565b005b3480156100f457600080fd5b506100fd610580565b60405161010a91906112f7565b60405180910390f35b61012d60048036038101906101289190611312565b6105a9565b005b34801561013b57600080fd5b50610144610815565b6040516101519190611419565b60405180910390f35b610174600480360381019061016f9190611460565b6108a3565b005b34801561018257600080fd5b5061019d600480360381019061019891906114b9565b610964565b6040516101aa9190611508565b60405180910390f35b3480156101bf57600080fd5b506101da60048036038101906101d59190611460565b6109e3565b6040516101e79190611508565b60405180910390f35b3480156101fc57600080fd5b5061021760048036038101906102129190611523565b610a24565b005b6000821161025c576040517f08c379a0000000000000000000000000000000000000000000000000000000008152600401610253906115d3565b60405180910390fd5b600033905082600260008373ffffffffffffffffffffffffffffffffffffffff1673ffffffffffffffffffffffffffffffffffffffff16815260200190815260200160002060008060018111156102b6576102b56115f3565b5b60018111156102c8576102c76115f3565b5b815260200190815260200160002060008282546102e59190611651565b925050819055508260036000806001811115610304576103036115f3565b5b6001811115610316576103156115f3565b5b815260200190815260200160002060008282546103339190611651565b9250508190555061034381610b1c565b156103ac576004819080600181540180825580915050600190039060005260206000200160009091909190916101000a81548173ffffffffffffffffffffffffffffffffffffffff021916908373ffffffffffffffffffffffffffffffffffffffff1602179055505b6000825114156103ef576040518060400160405280600481526020017f4e6f6e650000000000000000000000000000000000000000000000000000000081525091505b600160009054906101000a900473ffffffffffffffffffffffffffffffffffffffff1673ffffffffffffffffffffffffffffffffffffffff166323b872dd82610436610580565b866040518463ffffffff167c0100000000000000000000000000000000000000000000000000000000028152600401610471939291906116a7565b6020604051808303816000875af1158015610490573d6000803e3d6000fd5b505050506040513d601f19601f820116820180604052508101906104b49190611716565b507faee2c60af1b8dbb7fd9a4b45e57dd980e4408ccf15a31bca07c2ca079d83764181600085856040516104eb9493929190611802565b60405180910390a1505050565b610500610c1c565b73ffffffffffffffffffffffffffffffffffffffff1661051e610580565b73ffffffffffffffffffffffffffffffffffffffff1614610574576040517f08c379a000000000000000000000000000000000000000000000000000000000815260040161056b9061189a565b60405180910390fd5b61057e6000610c24565b565b60008060009054906101000a900473ffffffffffffffffffffffffffffffffffffffff16905090565b6000349050600081116105f1576040517f08c379a00000000000000000000000000000000000000000000000000000000081526004016105e8906115d3565b60405180910390fd5b600033905081600260008373ffffffffffffffffffffffffffffffffffffffff1673ffffffffffffffffffffffffffffffffffffffff168152602001908152602001600020600060018081111561064b5761064a6115f3565b5b600181111561065d5761065c6115f3565b5b8152602001908152602001600020600082825461067a9190611651565b925050819055508160036000600180811115610699576106986115f3565b5b60018111156106ab576106aa6115f3565b5b815260200190815260200160002060008282546106c89190611651565b925050819055506106d881610b1c565b15610741576004819080600181540180825580915050600190039060005260206000200160009091909190916101000a81548173ffffffffffffffffffffffffffffffffffffffff021916908373ffffffffffffffffffffffffffffffffffffffff1602179055505b600083511415610784576040518060400160405280600481526020017f4e6f6e650000000000000000000000000000000000000000000000000000000081525092505b61078c610580565b73ffffffffffffffffffffffffffffffffffffffff166108fc839081150290604051600060405180830381858888f193505050501580156107d1573d6000803e3d6000fd5b507faee2c60af1b8dbb7fd9a4b45e57dd980e4408ccf15a31bca07c2ca079d83764181600184866040516108089493929190611802565b60405180910390a1505050565b6060600480548060200260200160405190810160405280929190818152602001828054801561089957602002820191906000526020600020905b8160009054906101000a900473ffffffffffffffffffffffffffffffffffffffff1673ffffffffffffffffffffffffffffffffffffffff168152602001906001019080831161084f575b5050505050905090565b6108ab610c1c565b73ffffffffffffffffffffffffffffffffffffffff166108c9610580565b73ffffffffffffffffffffffffffffffffffffffff161461091f576040517f08c379a00000000000000000000000000000000000000000000000000000000081526004016109169061189a565b60405180910390fd5b600180811115610932576109316115f3565b5b816001811115610945576109446115f3565b5b141561095857610953610ce8565b610961565b610960610e4e565b5b50565b6000600260008473ffffffffffffffffffffffffffffffffffffffff1673ffffffffffffffffffffffffffffffffffffffff16815260200190815260200160002060008360018111156109ba576109b96115f3565b5b60018111156109cc576109cb6115f3565b5b815260200190815260200160002054905092915050565b6000600360008360018111156109fc576109fb6115f3565b5b6001811115610a0e57610a0d6115f3565b5b8152602001908152602001600020549050919050565b610a2c610c1c565b73ffffffffffffffffffffffffffffffffffffffff16610a4a610580565b73ffffffffffffffffffffffffffffffffffffffff1614610aa0576040517f08c379a0000000000000000000000000000000000000000000000000000000008152600401610a979061189a565b60405180910390fd5b600073ffffffffffffffffffffffffffffffffffffffff168173ffffffffffffffffffffffffffffffffffffffff161415610b10576040517f08c379a0000000000000000000000000000000000000000000000000000000008152600401610b079061192c565b60405180910390fd5b610b1981610c24565b50565b600080600260008473ffffffffffffffffffffffffffffffffffffffff1673ffffffffffffffffffffffffffffffffffffffff1681526020019081526020016000206000600180811115610b7357610b726115f3565b5b6001811115610b8557610b846115f3565b5b815260200190815260200160002054148015610c1557506000600260008473ffffffffffffffffffffffffffffffffffffffff1673ffffffffffffffffffffffffffffffffffffffff1681526020019081526020016000206000806001811115610bf257610bf16115f3565b5b6001811115610c0457610c036115f3565b5b815260200190815260200160002054145b9050919050565b600033905090565b60008060009054906101000a900473ffffffffffffffffffffffffffffffffffffffff169050816000806101000a81548173ffffffffffffffffffffffffffffffffffffffff021916908373ffffffffffffffffffffffffffffffffffffffff1602179055508173ffffffffffffffffffffffffffffffffffffffff168173ffffffffffffffffffffffffffffffffffffffff167f8be0079c531659141344cd1fd0a4f28419497f9722a3daafe3b4186f6b6457e060405160405180910390a35050565b610cf0610c1c565b73ffffffffffffffffffffffffffffffffffffffff16610d0e610580565b73ffffffffffffffffffffffffffffffffffffffff1614610d64576040517f08c379a0000000000000000000000000000000000000000000000000000000008152600401610d5b9061189a565b60405180910390fd5b60003073ffffffffffffffffffffffffffffffffffffffff1631905060008111610dc3576040517f08c379a0000000000000000000000000000000000000000000000000000000008152600401610dba906119be565b60405180910390fd5b610dcb610580565b73ffffffffffffffffffffffffffffffffffffffff166108fc829081150290604051600060405180830381858888f19350505050158015610e10573d6000803e3d6000fd5b507fbcf075696884018cb037610b680550c484e197dd274b39849dcc4c9181b23bc6600182604051610e439291906119de565b60405180910390a150565b610e56610c1c565b73ffffffffffffffffffffffffffffffffffffffff16610e74610580565b73ffffffffffffffffffffffffffffffffffffffff1614610eca576040517f08c379a0000000000000000000000000000000000000000000000000000000008152600401610ec19061189a565b60405180910390fd5b6000600160009054906101000a900473ffffffffffffffffffffffffffffffffffffffff1673ffffffffffffffffffffffffffffffffffffffff166370a08231306040518263ffffffff167c0100000000000000000000000000000000000000000000000000000000028152600401610f4391906112f7565b602060405180830381865afa158015610f60573d6000803e3d6000fd5b505050506040513d601f19601f82011682018060405250810190610f849190611a1c565b905060008111610fc9576040517f08c379a0000000000000000000000000000000000000000000000000000000008152600401610fc090611abb565b60405180910390fd5b600160009054906101000a900473ffffffffffffffffffffffffffffffffffffffff1673ffffffffffffffffffffffffffffffffffffffff1663a9059cbb61100f610580565b836040518363ffffffff167c0100000000000000000000000000000000000000000000000000000000028152600401611049929190611adb565b6020604051808303816000875af1158015611068573d6000803e3d6000fd5b505050506040513d601f19601f8201168201806040525081019061108c9190611716565b507fbcf075696884018cb037610b680550c484e197dd274b39849dcc4c9181b23bc66000826040516110bf9291906119de565b60405180910390a150565b6000604051905090565b600080fd5b600080fd5b6000819050919050565b6110f1816110de565b81146110fc57600080fd5b50565b60008135905061110e816110e8565b92915050565b600080fd5b600080fd5b6000601f19601f8301169050919050565b7f4e487b7100000000000000000000000000000000000000000000000000000000600052604160045260246000fd5b6111678261111e565b810181811067ffffffffffffffff821117156111865761118561112f565b5b80604052505050565b60006111996110ca565b90506111a5828261115e565b919050565b600067ffffffffffffffff8211156111c5576111c461112f565b5b6111ce8261111e565b9050602081019050919050565b82818337600083830152505050565b60006111fd6111f8846111aa565b61118f565b90508281526020810184848401111561121957611218611119565b5b6112248482856111db565b509392505050565b600082601f83011261124157611240611114565b5b81356112518482602086016111ea565b91505092915050565b60008060408385031215611271576112706110d4565b5b600061127f858286016110ff565b925050602083013567ffffffffffffffff8111156112a05761129f6110d9565b5b6112ac8582860161122c565b9150509250929050565b600073ffffffffffffffffffffffffffffffffffffffff82169050919050565b60006112e1826112b6565b9050919050565b6112f1816112d6565b82525050565b600060208201905061130c60008301846112e8565b92915050565b600060208284031215611328576113276110d4565b5b600082013567ffffffffffffffff811115611346576113456110d9565b5b6113528482850161122c565b91505092915050565b600081519050919050565b600082825260208201905092915050565b6000819050602082019050919050565b611390816112d6565b82525050565b60006113a28383611387565b60208301905092915050565b6000602082019050919050565b60006113c68261135b565b6113d08185611366565b93506113db83611377565b8060005b8381101561140c5781516113f38882611396565b97506113fe836113ae565b9250506001810190506113df565b5085935050505092915050565b6000602082019050818103600083015261143381846113bb565b905092915050565b6002811061144857600080fd5b50565b60008135905061145a8161143b565b92915050565b600060208284031215611476576114756110d4565b5b60006114848482850161144b565b91505092915050565b611496816112d6565b81146114a157600080fd5b50565b6000813590506114b38161148d565b92915050565b600080604083850312156114d0576114cf6110d4565b5b60006114de858286016114a4565b92505060206114ef8582860161144b565b9150509250929050565b611502816110de565b82525050565b600060208201905061151d60008301846114f9565b92915050565b600060208284031215611539576115386110d4565b5b6000611547848285016114a4565b91505092915050565b600082825260208201905092915050565b7f446f6e6174696f6e3a20446f6e6174696f6e2063616e6e6f74206265207a657260008201527f6f21000000000000000000000000000000000000000000000000000000000000602082015250565b60006115bd602283611550565b91506115c882611561565b604082019050919050565b600060208201905081810360008301526115ec816115b0565b9050919050565b7f4e487b7100000000000000000000000000000000000000000000000000000000600052602160045260246000fd5b7f4e487b7100000000000000000000000000000000000000000000000000000000600052601160045260246000fd5b600061165c826110de565b9150611667836110de565b9250827fffffffffffffffffffffffffffffffffffffffffffffffffffffffffffffffff0382111561169c5761169b611622565b5b828201905092915050565b60006060820190506116bc60008301866112e8565b6116c960208301856112e8565b6116d660408301846114f9565b949350505050565b60008115159050919050565b6116f3816116de565b81146116fe57600080fd5b50565b600081519050611710816116ea565b92915050565b60006020828403121561172c5761172b6110d4565b5b600061173a84828501611701565b91505092915050565b60028110611754576117536115f3565b5b50565b600081905061176582611743565b919050565b600061177582611757565b9050919050565b6117858161176a565b82525050565b600081519050919050565b60005b838110156117b4578082015181840152602081019050611799565b838111156117c3576000848401525b50505050565b60006117d48261178b565b6117de8185611550565b93506117ee818560208601611796565b6117f78161111e565b840191505092915050565b600060808201905061181760008301876112e8565b611824602083018661177c565b61183160408301856114f9565b818103606083015261184381846117c9565b905095945050505050565b7f4f776e61626c653a2063616c6c6572206973206e6f7420746865206f776e6572600082015250565b6000611884602083611550565b915061188f8261184e565b602082019050919050565b600060208201905081810360008301526118b381611877565b9050919050565b7f4f776e61626c653a206e6577206f776e657220697320746865207a65726f206160008201527f6464726573730000000000000000000000000000000000000000000000000000602082015250565b6000611916602683611550565b9150611921826118ba565b604082019050919050565b6000602082019050818103600083015261194581611909565b9050919050565b7f4e6f7468696e6720746f2062652077697468647261776e2066726f6d2074686560008201527f20736d61727420636f6e74726163742100000000000000000000000000000000602082015250565b60006119a8603083611550565b91506119b38261194c565b604082019050919050565b600060208201905081810360008301526119d78161199b565b9050919050565b60006040820190506119f3600083018561177c565b611a0060208301846114f9565b9392505050565b600081519050611a16816110e8565b92915050565b600060208284031215611a3257611a316110d4565b5b6000611a4084828501611a07565b91505092915050565b7f4e6f20534e4f5720746f20626520636f6c6c65637465642066726f6d2074686960008201527f7320636f6e747261637421000000000000000000000000000000000000000000602082015250565b6000611aa5602b83611550565b9150611ab082611a49565b604082019050919050565b60006020820190508181036000830152611ad481611a98565b9050919050565b6000604082019050611af060008301856112e8565b611afd60208301846114f9565b939250505056fea26469706673582212200426ddf6e89dee3fdf8ca897acadf034f613877dee28b0af3b9c397898e85e9b64736f6c634300080b0033",
  "immutableReferences": {},
  "source": "// SPDX-License-Identifier: MIT\r\n\r\npragma solidity ^0.8.0;\r\n\r\nimport \"./ShelterNOW.sol\";\r\nimport \"@openzeppelin/contracts/access/Ownable.sol\";\r\n\r\ncontract Donation is Ownable {\r\n    // SNOW token contract\r\n    ShelterNOW SNOW;\r\n\r\n    // Mapping from donors to respective token donation.\r\n    mapping(address => mapping(Token => uint256)) private _donorToDonation;\r\n\r\n    // Total token donation.\r\n    mapping(Token => uint256) private _totalDonation;\r\n\r\n    // An array of unique donor addresses.\r\n    address[] donors;\r\n\r\n    // Type of tokens used, currently only accept SNOW and ETH.\r\n    enum Token {\r\n        SNOW,\r\n        ETH\r\n    }\r\n\r\n    // Event emission of successful donation.\r\n    event Donate(\r\n        address donor,\r\n        Token tokenType,\r\n        uint256 amount,\r\n        string message\r\n    );\r\n\r\n    // Event emission of successful withdrawal.\r\n    event Withdraw(Token tokenType, uint256 amount);\r\n\r\n    /**\r\n     * @dev Initialises the Donation smart contract and assign a corresponding SNOW token contract.\r\n     *\r\n     */\r\n    constructor(address _SNOWaddr) {\r\n        SNOW = ShelterNOW(_SNOWaddr);\r\n    }\r\n\r\n    /**\r\n     * @dev Donate to the animal shelter using SNOW token.\r\n     *\r\n     * @param amount Amount of SNOW to be donated.\r\n     * @param message Short message about the donation.\r\n     */\r\n    function donateSNOW(uint256 amount, string memory message) public {\r\n        require(amount > 0, \"Donation: Donation cannot be zero!\");\r\n        address donor = msg.sender;\r\n\r\n        _donorToDonation[donor][Token.SNOW] += amount;\r\n        _totalDonation[Token.SNOW] += amount;\r\n\r\n        if (_donorIsNew(donor)) donors.push(donor);\r\n        if (bytes(message).length == 0) message = \"None\";\r\n\r\n        SNOW.transferFrom(donor, owner(), amount);\r\n        emit Donate(donor, Token.SNOW, amount, message);\r\n    }\r\n\r\n    /**\r\n     * @dev Donate to the animal shelter using Ethereum.\r\n     *\r\n     * @param message Short message about the donation.\r\n     */\r\n    function donateETH(string memory message) public payable {\r\n        uint256 amount = msg.value;\r\n        require(amount > 0, \"Donation: Donation cannot be zero!\");\r\n        address donor = msg.sender;\r\n\r\n        _donorToDonation[donor][Token.ETH] += amount;\r\n        _totalDonation[Token.ETH] += amount;\r\n\r\n        if (_donorIsNew(donor)) donors.push(donor);\r\n        if (bytes(message).length == 0) message = \"None\";\r\n        payable(owner()).transfer(amount);\r\n\r\n        emit Donate(donor, Token.ETH, amount, message);\r\n    }\r\n\r\n    /**\r\n     * @dev Withdraw token from the smart contract to the animal shelter's wallet.\r\n     *\r\n     * @param tokenType: Type of token\r\n     */\r\n    function withdraw(Token tokenType) public payable onlyOwner {\r\n        if (tokenType == Token.ETH) withdrawEther();\r\n        else withdrawSNOW();\r\n    }\r\n\r\n    /**\r\n     * @dev Get all donors.\r\n     */\r\n    function getDonors() public view returns (address[] memory) {\r\n        return donors;\r\n    }\r\n\r\n    /**\r\n     * @dev Get total amount of donations of a token.\r\n     *\r\n     * @param tokenType: Type of token.\r\n     */\r\n    function getTotalDonation(Token tokenType) public view returns (uint256) {\r\n        return _totalDonation[tokenType];\r\n    }\r\n\r\n    /**\r\n     * @dev Get total amount of donations by a donor of a token.\r\n     *\r\n     * @param tokenType: Type of token.\r\n     */\r\n    function getDonationOfDonor(address donor, Token tokenType)\r\n        public\r\n        view\r\n        returns (uint256)\r\n    {\r\n        return _donorToDonation[donor][tokenType];\r\n    }\r\n\r\n    /**\r\n     * @dev Withdraw ether from the smart contract if any.\r\n     */\r\n    function withdrawEther() internal onlyOwner {\r\n        uint256 contractBalance = address(this).balance;\r\n        require(\r\n            contractBalance > 0,\r\n            \"Nothing to be withdrawn from the smart contract!\"\r\n        );\r\n\r\n        payable(owner()).transfer(contractBalance);\r\n\r\n        emit Withdraw(Token.ETH, contractBalance);\r\n    }\r\n\r\n    /**\r\n     * @dev Withdraw SNOW from the smart contract if any.\r\n     */\r\n    function withdrawSNOW() internal onlyOwner {\r\n        uint256 contractBalance = SNOW.balanceOf(address(this));\r\n        require(\r\n            contractBalance > 0,\r\n            \"No SNOW to be collected from this contract!\"\r\n        );\r\n        SNOW.transfer(owner(), contractBalance);\r\n\r\n        emit Withdraw(Token.SNOW, contractBalance);\r\n    }\r\n\r\n    /**\r\n     * @dev Check if a donor is new to the donation.\r\n     *\r\n     * @param donor: Address of the donor.\r\n     *\r\n     * @return Donor is new or not.\r\n     */\r\n    function _donorIsNew(address donor) internal view returns (bool) {\r\n        return\r\n            _donorToDonation[donor][Token.ETH] == 0 &&\r\n            _donorToDonation[donor][Token.SNOW] == 0;\r\n    }\r\n}\r\n",
  "sourcePath": "E:\\Users\\user\\Documents\\Homework\\Year 3 Comp\\CSC3632\\animal-shelters-dapp\\contracts\\Donation.sol",
  "compiler": {
    "name": "solc",
    "version": "0.8.11+commit.d7f03943.Emscripten.clang"
  },
  "schemaVersion": "3.4.4",
  "updatedAt": "2022-04-24T00:12:52.676Z",
  "networkType": "ethereum",
  "devdoc": {
    "kind": "dev",
    "methods": {
      "constructor": {
        "details": "Initialises the Donation smart contract and assign a corresponding SNOW token contract."
      },
      "donateETH(string)": {
        "details": "Donate to the animal shelter using Ethereum.",
        "params": {
          "message": "Short message about the donation."
        }
      },
      "donateSNOW(uint256,string)": {
        "details": "Donate to the animal shelter using SNOW token.",
        "params": {
          "amount": "Amount of SNOW to be donated.",
          "message": "Short message about the donation."
        }
      },
      "getDonationOfDonor(address,uint8)": {
        "details": "Get total amount of donations by a donor of a token.",
        "params": {
          "tokenType": ": Type of token."
        }
      },
      "getDonors()": {
        "details": "Get all donors."
      },
      "getTotalDonation(uint8)": {
        "details": "Get total amount of donations of a token.",
        "params": {
          "tokenType": ": Type of token."
        }
      },
      "owner()": {
        "details": "Returns the address of the current owner."
      },
      "renounceOwnership()": {
        "details": "Leaves the contract without owner. It will not be possible to call `onlyOwner` functions anymore. Can only be called by the current owner. NOTE: Renouncing ownership will leave the contract without an owner, thereby removing any functionality that is only available to the owner."
      },
      "transferOwnership(address)": {
        "details": "Transfers ownership of the contract to a new account (`newOwner`). Can only be called by the current owner."
      },
      "withdraw(uint8)": {
        "details": "Withdraw token from the smart contract to the animal shelter's wallet.",
        "params": {
          "tokenType": ": Type of token"
        }
      }
    },
    "version": 1
  },
  "userdoc": {
    "kind": "user",
    "methods": {},
    "version": 1
  }
}