{
  "contractName": "Donation",
  "abi": [
    {
      "inputs": [
        {
          "internalType": "address",
          "name": "_SNOWAddress",
          "type": "address"
        }
      ],
      "stateMutability": "nonpayable",
      "type": "constructor"
    },
    {
      "anonymous": false,
      "inputs": [
        {
          "indexed": false,
          "internalType": "address",
          "name": "donor",
          "type": "address"
        },
        {
          "indexed": false,
          "internalType": "enum Donation.Token",
          "name": "tokenType",
          "type": "uint8"
        },
        {
          "indexed": false,
          "internalType": "uint256",
          "name": "amount",
          "type": "uint256"
        },
        {
          "indexed": false,
          "internalType": "string",
          "name": "message",
          "type": "string"
        }
      ],
      "name": "Donate",
      "type": "event"
    },
    {
      "anonymous": false,
      "inputs": [
        {
          "indexed": true,
          "internalType": "address",
          "name": "previousOwner",
          "type": "address"
        },
        {
          "indexed": true,
          "internalType": "address",
          "name": "newOwner",
          "type": "address"
        }
      ],
      "name": "OwnershipTransferred",
      "type": "event"
    },
    {
      "anonymous": false,
      "inputs": [
        {
          "indexed": false,
          "internalType": "enum Donation.Token",
          "name": "tokenType",
          "type": "uint8"
        },
        {
          "indexed": false,
          "internalType": "uint256",
          "name": "amount",
          "type": "uint256"
        }
      ],
      "name": "Withdraw",
      "type": "event"
    },
    {
      "inputs": [],
      "name": "owner",
      "outputs": [
        {
          "internalType": "address",
          "name": "",
          "type": "address"
        }
      ],
      "stateMutability": "view",
      "type": "function"
    },
    {
      "inputs": [],
      "name": "renounceOwnership",
      "outputs": [],
      "stateMutability": "nonpayable",
      "type": "function"
    },
    {
      "inputs": [
        {
          "internalType": "address",
          "name": "newOwner",
          "type": "address"
        }
      ],
      "name": "transferOwnership",
      "outputs": [],
      "stateMutability": "nonpayable",
      "type": "function"
    },
    {
      "inputs": [
        {
          "internalType": "uint256",
          "name": "amount",
          "type": "uint256"
        },
        {
          "internalType": "string",
          "name": "message",
          "type": "string"
        }
      ],
      "name": "donateSNOW",
      "outputs": [],
      "stateMutability": "nonpayable",
      "type": "function"
    },
    {
      "inputs": [
        {
          "internalType": "string",
          "name": "message",
          "type": "string"
        }
      ],
      "name": "donateETH",
      "outputs": [],
      "stateMutability": "payable",
      "type": "function"
    },
    {
      "inputs": [
        {
          "internalType": "enum Donation.Token",
          "name": "tokenType",
          "type": "uint8"
        }
      ],
      "name": "withdraw",
      "outputs": [],
      "stateMutability": "payable",
      "type": "function"
    },
    {
      "inputs": [],
      "name": "getDonors",
      "outputs": [
        {
          "internalType": "address[]",
          "name": "",
          "type": "address[]"
        }
      ],
      "stateMutability": "view",
      "type": "function"
    },
    {
      "inputs": [
        {
          "internalType": "enum Donation.Token",
          "name": "tokenType",
          "type": "uint8"
        }
      ],
      "name": "getTotalDonation",
      "outputs": [
        {
          "internalType": "uint256",
          "name": "",
          "type": "uint256"
        }
      ],
      "stateMutability": "view",
      "type": "function"
    },
    {
      "inputs": [
        {
          "internalType": "enum Donation.Token",
          "name": "tokenType",
          "type": "uint8"
        }
      ],
      "name": "getUncollectedDonation",
      "outputs": [
        {
          "internalType": "uint256",
          "name": "",
          "type": "uint256"
        }
      ],
      "stateMutability": "view",
      "type": "function"
    },
    {
      "inputs": [
        {
          "internalType": "address",
          "name": "donor",
          "type": "address"
        },
        {
          "internalType": "enum Donation.Token",
          "name": "tokenType",
          "type": "uint8"
        }
      ],
      "name": "getDonationOfDonor",
      "outputs": [
        {
          "internalType": "uint256",
          "name": "",
          "type": "uint256"
        }
      ],
      "stateMutability": "view",
      "type": "function"
    },
    {
      "inputs": [
        {
          "internalType": "enum Donation.Token",
          "name": "tokenType",
          "type": "uint8"
        }
      ],
      "name": "getTopDonors",
      "outputs": [
        {
          "internalType": "address",
          "name": "",
          "type": "address"
        },
        {
          "internalType": "address",
          "name": "",
          "type": "address"
        },
        {
          "internalType": "address",
          "name": "",
          "type": "address"
        }
      ],
      "stateMutability": "view",
      "type": "function"
    }
  ],
  "bytecode": "0x60806040523480156200001157600080fd5b506040516200285f3803806200285f8339818101604052810190620000379190620001e7565b6200006962000054620000b1640100000000026401000000009004565b620000b9640100000000026401000000009004565b80600160006101000a81548173ffffffffffffffffffffffffffffffffffffffff021916908373ffffffffffffffffffffffffffffffffffffffff1602179055505062000219565b600033905090565b60008060009054906101000a900473ffffffffffffffffffffffffffffffffffffffff169050816000806101000a81548173ffffffffffffffffffffffffffffffffffffffff021916908373ffffffffffffffffffffffffffffffffffffffff1602179055508173ffffffffffffffffffffffffffffffffffffffff168173ffffffffffffffffffffffffffffffffffffffff167f8be0079c531659141344cd1fd0a4f28419497f9722a3daafe3b4186f6b6457e060405160405180910390a35050565b600080fd5b600073ffffffffffffffffffffffffffffffffffffffff82169050919050565b6000620001af8262000182565b9050919050565b620001c181620001a2565b8114620001cd57600080fd5b50565b600081519050620001e181620001b6565b92915050565b6000602082840312156200020057620001ff6200017d565b5b60006200021084828501620001d0565b91505092915050565b61263680620002296000396000f3fe6080604052600436106100b9576000357c0100000000000000000000000000000000000000000000000000000000900480639b0618a3116100815780639b0618a314610170578063c5c3dd7e146101ad578063c6ab5d90146101ec578063d3f428b514610208578063eff4c3a514610245578063f2fde38b14610282576100b9565b80636e7dd40b146100be578063715018a6146100e75780638da5cb5b146100fe5780638ed169631461012957806396f300d414610145575b600080fd5b3480156100ca57600080fd5b506100e560048036038101906100e09190611ca0565b6102ab565b005b3480156100f357600080fd5b506100fc6105dc565b005b34801561010a57600080fd5b50610113610664565b6040516101209190611d3d565b60405180910390f35b610143600480360381019061013e9190611d58565b61068d565b005b34801561015157600080fd5b5061015a610904565b6040516101679190611e5f565b60405180910390f35b34801561017c57600080fd5b5061019760048036038101906101929190611ea6565b610992565b6040516101a49190611ee2565b60405180910390f35b3480156101b957600080fd5b506101d460048036038101906101cf9190611ea6565b6109d3565b6040516101e393929190611efd565b60405180910390f35b61020660048036038101906102019190611ea6565b610b29565b005b34801561021457600080fd5b5061022f600480360381019061022a9190611f60565b610bea565b60405161023c9190611ee2565b60405180910390f35b34801561025157600080fd5b5061026c60048036038101906102679190611ea6565b610c69565b6040516102799190611ee2565b60405180910390f35b34801561028e57600080fd5b506102a960048036038101906102a49190611fa0565b610caa565b005b600082116102ee576040517f08c379a00000000000000000000000000000000000000000000000000000000081526004016102e590612050565b60405180910390fd5b6000339050826003600080600181111561030b5761030a612070565b5b600181111561031d5761031c612070565b5b8152602001908152602001600020600082825461033a91906120ce565b9250508190555082600260008373ffffffffffffffffffffffffffffffffffffffff1673ffffffffffffffffffffffffffffffffffffffff168152602001908152602001600020600080600181111561039657610395612070565b5b60018111156103a8576103a7612070565b5b815260200190815260200160002060008282546103c591906120ce565b9250508190555082600460008060018111156103e4576103e3612070565b5b60018111156103f6576103f5612070565b5b8152602001908152602001600020600082825461041391906120ce565b9250508190555061042381610da2565b1561048c576006819080600181540180825580915050600190039060005260206000200160009091909190916101000a81548173ffffffffffffffffffffffffffffffffffffffff021916908373ffffffffffffffffffffffffffffffffffffffff1602179055505b6000825114156104cf576040518060400160405280600481526020017f4e6f6e650000000000000000000000000000000000000000000000000000000081525091505b6104da816000610ea2565b600160009054906101000a900473ffffffffffffffffffffffffffffffffffffffff1673ffffffffffffffffffffffffffffffffffffffff166323b872dd8230866040518463ffffffff167c010000000000000000000000000000000000000000000000000000000002815260040161055593929190612124565b6020604051808303816000875af1158015610574573d6000803e3d6000fd5b505050506040513d601f19601f820116820180604052508101906105989190612193565b507faee2c60af1b8dbb7fd9a4b45e57dd980e4408ccf15a31bca07c2ca079d83764181600085856040516105cf949392919061227f565b60405180910390a1505050565b6105e4611625565b73ffffffffffffffffffffffffffffffffffffffff16610602610664565b73ffffffffffffffffffffffffffffffffffffffff1614610658576040517f08c379a000000000000000000000000000000000000000000000000000000000815260040161064f90612317565b60405180910390fd5b610662600061162d565b565b60008060009054906101000a900473ffffffffffffffffffffffffffffffffffffffff16905090565b6000349050600081116106d5576040517f08c379a00000000000000000000000000000000000000000000000000000000081526004016106cc90612050565b60405180910390fd5b600033905081600360006001808111156106f2576106f1612070565b5b600181111561070457610703612070565b5b8152602001908152602001600020600082825461072191906120ce565b9250508190555081600260008373ffffffffffffffffffffffffffffffffffffffff1673ffffffffffffffffffffffffffffffffffffffff168152602001908152602001600020600060018081111561077d5761077c612070565b5b600181111561078f5761078e612070565b5b815260200190815260200160002060008282546107ac91906120ce565b9250508190555081600460006001808111156107cb576107ca612070565b5b60018111156107dd576107dc612070565b5b815260200190815260200160002060008282546107fa91906120ce565b9250508190555061080a81610da2565b15610873576006819080600181540180825580915050600190039060005260206000200160009091909190916101000a81548173ffffffffffffffffffffffffffffffffffffffff021916908373ffffffffffffffffffffffffffffffffffffffff1602179055505b6000835114156108b6576040518060400160405280600481526020017f4e6f6e650000000000000000000000000000000000000000000000000000000081525092505b6108c1816001610ea2565b7faee2c60af1b8dbb7fd9a4b45e57dd980e4408ccf15a31bca07c2ca079d83764181600184866040516108f7949392919061227f565b60405180910390a1505050565b6060600680548060200260200160405190810160405280929190818152602001828054801561098857602002820191906000526020600020905b8160009054906101000a900473ffffffffffffffffffffffffffffffffffffffff1673ffffffffffffffffffffffffffffffffffffffff168152602001906001019080831161093e575b5050505050905090565b6000600360008360018111156109ab576109aa612070565b5b60018111156109bd576109bc612070565b5b8152602001908152602001600020549050919050565b6000806000600560008560018111156109ef576109ee612070565b5b6001811115610a0157610a00612070565b5b8152602001908152602001600020600060038110610a2257610a21612337565b5b0160009054906101000a900473ffffffffffffffffffffffffffffffffffffffff1660056000866001811115610a5b57610a5a612070565b5b6001811115610a6d57610a6c612070565b5b8152602001908152602001600020600160038110610a8e57610a8d612337565b5b0160009054906101000a900473ffffffffffffffffffffffffffffffffffffffff1660056000876001811115610ac757610ac6612070565b5b6001811115610ad957610ad8612070565b5b8152602001908152602001600020600260038110610afa57610af9612337565b5b0160009054906101000a900473ffffffffffffffffffffffffffffffffffffffff169250925092509193909250565b610b31611625565b73ffffffffffffffffffffffffffffffffffffffff16610b4f610664565b73ffffffffffffffffffffffffffffffffffffffff1614610ba5576040517f08c379a0000000000000000000000000000000000000000000000000000000008152600401610b9c90612317565b60405180910390fd5b600180811115610bb857610bb7612070565b5b816001811115610bcb57610bca612070565b5b1415610bde57610bd96116f1565b610be7565b610be66118d7565b5b50565b6000600260008473ffffffffffffffffffffffffffffffffffffffff1673ffffffffffffffffffffffffffffffffffffffff1681526020019081526020016000206000836001811115610c4057610c3f612070565b5b6001811115610c5257610c51612070565b5b815260200190815260200160002054905092915050565b600060046000836001811115610c8257610c81612070565b5b6001811115610c9457610c93612070565b5b8152602001908152602001600020549050919050565b610cb2611625565b73ffffffffffffffffffffffffffffffffffffffff16610cd0610664565b73ffffffffffffffffffffffffffffffffffffffff1614610d26576040517f08c379a0000000000000000000000000000000000000000000000000000000008152600401610d1d90612317565b60405180910390fd5b600073ffffffffffffffffffffffffffffffffffffffff168173ffffffffffffffffffffffffffffffffffffffff161415610d96576040517f08c379a0000000000000000000000000000000000000000000000000000000008152600401610d8d906123d8565b60405180910390fd5b610d9f8161162d565b50565b600080600260008473ffffffffffffffffffffffffffffffffffffffff1673ffffffffffffffffffffffffffffffffffffffff1681526020019081526020016000206000600180811115610df957610df8612070565b5b6001811115610e0b57610e0a612070565b5b815260200190815260200160002054148015610e9b57506000600260008473ffffffffffffffffffffffffffffffffffffffff1673ffffffffffffffffffffffffffffffffffffffff1681526020019081526020016000206000806001811115610e7857610e77612070565b5b6001811115610e8a57610e89612070565b5b815260200190815260200160002054145b9050919050565b600073ffffffffffffffffffffffffffffffffffffffff168273ffffffffffffffffffffffffffffffffffffffff161415610f12576040517f08c379a0000000000000000000000000000000000000000000000000000000008152600401610f099061246a565b60405180910390fd5b6000600260008473ffffffffffffffffffffffffffffffffffffffff1673ffffffffffffffffffffffffffffffffffffffff1681526020019081526020016000206000836001811115610f6857610f67612070565b5b6001811115610f7a57610f79612070565b5b8152602001908152602001600020549050600080600060056000866001811115610fa757610fa6612070565b5b6001811115610fb957610fb8612070565b5b8152602001908152602001600020600060038110610fda57610fd9612337565b5b0160009054906101000a900473ffffffffffffffffffffffffffffffffffffffff166005600087600181111561101357611012612070565b5b600181111561102557611024612070565b5b815260200190815260200160002060016003811061104657611045612337565b5b0160009054906101000a900473ffffffffffffffffffffffffffffffffffffffff166005600088600181111561107f5761107e612070565b5b600181111561109157611090612070565b5b81526020019081526020016000206002600381106110b2576110b1612337565b5b0160009054906101000a900473ffffffffffffffffffffffffffffffffffffffff16925092509250600260008273ffffffffffffffffffffffffffffffffffffffff1673ffffffffffffffffffffffffffffffffffffffff168152602001908152602001600020600086600181111561112e5761112d612070565b5b60018111156111405761113f612070565b5b81526020019081526020016000205484101561115f5750505050611621565b600260008473ffffffffffffffffffffffffffffffffffffffff1673ffffffffffffffffffffffffffffffffffffffff16815260200190815260200160002060008660018111156111b3576111b2612070565b5b60018111156111c5576111c4612070565b5b81526020019081526020016000205484111561137e5781600560008760018111156111f3576111f2612070565b5b600181111561120557611204612070565b5b815260200190815260200160002060026003811061122657611225612337565b5b0160006101000a81548173ffffffffffffffffffffffffffffffffffffffff021916908373ffffffffffffffffffffffffffffffffffffffff160217905550826005600087600181111561127d5761127c612070565b5b600181111561128f5761128e612070565b5b81526020019081526020016000206001600381106112b0576112af612337565b5b0160006101000a81548173ffffffffffffffffffffffffffffffffffffffff021916908373ffffffffffffffffffffffffffffffffffffffff160217905550856005600087600181111561130757611306612070565b5b600181111561131957611318612070565b5b815260200190815260200160002060006003811061133a57611339612337565b5b0160006101000a81548173ffffffffffffffffffffffffffffffffffffffff021916908373ffffffffffffffffffffffffffffffffffffffff16021790555061161c565b600260008373ffffffffffffffffffffffffffffffffffffffff1673ffffffffffffffffffffffffffffffffffffffff16815260200190815260200160002060008660018111156113d2576113d1612070565b5b60018111156113e4576113e3612070565b5b81526020019081526020016000205484111561151357816005600087600181111561141257611411612070565b5b600181111561142457611423612070565b5b815260200190815260200160002060026003811061144557611444612337565b5b0160006101000a81548173ffffffffffffffffffffffffffffffffffffffff021916908373ffffffffffffffffffffffffffffffffffffffff160217905550856005600087600181111561149c5761149b612070565b5b60018111156114ae576114ad612070565b5b81526020019081526020016000206001600381106114cf576114ce612337565b5b0160006101000a81548173ffffffffffffffffffffffffffffffffffffffff021916908373ffffffffffffffffffffffffffffffffffffffff16021790555061161b565b600260008273ffffffffffffffffffffffffffffffffffffffff1673ffffffffffffffffffffffffffffffffffffffff168152602001908152602001600020600086600181111561156757611566612070565b5b600181111561157957611578612070565b5b81526020019081526020016000205484111561161a5785600560008760018111156115a7576115a6612070565b5b60018111156115b9576115b8612070565b5b81526020019081526020016000206002600381106115da576115d9612337565b5b0160006101000a81548173ffffffffffffffffffffffffffffffffffffffff021916908373ffffffffffffffffffffffffffffffffffffffff1602179055505b5b5b505050505b5050565b600033905090565b60008060009054906101000a900473ffffffffffffffffffffffffffffffffffffffff169050816000806101000a81548173ffffffffffffffffffffffffffffffffffffffff021916908373ffffffffffffffffffffffffffffffffffffffff1602179055508173ffffffffffffffffffffffffffffffffffffffff168173ffffffffffffffffffffffffffffffffffffffff167f8be0079c531659141344cd1fd0a4f28419497f9722a3daafe3b4186f6b6457e060405160405180910390a35050565b6116f9611625565b73ffffffffffffffffffffffffffffffffffffffff16611717610664565b73ffffffffffffffffffffffffffffffffffffffff161461176d576040517f08c379a000000000000000000000000000000000000000000000000000000000815260040161176490612317565b60405180910390fd5b60006003600060018081111561178657611785612070565b5b600181111561179857611797612070565b5b815260200190815260200160002054905060003073ffffffffffffffffffffffffffffffffffffffff16311180156117d05750600081115b61180f576040517f08c379a0000000000000000000000000000000000000000000000000000000008152600401611806906124fc565b60405180910390fd5b60006003600060018081111561182857611827612070565b5b600181111561183a57611839612070565b5b815260200190815260200160002081905550611854610664565b73ffffffffffffffffffffffffffffffffffffffff166108fc829081150290604051600060405180830381858888f19350505050158015611899573d6000803e3d6000fd5b507fbcf075696884018cb037610b680550c484e197dd274b39849dcc4c9181b23bc66001826040516118cc92919061251c565b60405180910390a150565b6118df611625565b73ffffffffffffffffffffffffffffffffffffffff166118fd610664565b73ffffffffffffffffffffffffffffffffffffffff1614611953576040517f08c379a000000000000000000000000000000000000000000000000000000000815260040161194a90612317565b60405180910390fd5b60006003600080600181111561196c5761196b612070565b5b600181111561197e5761197d612070565b5b8152602001908152602001600020549050600081116119d2576040517f08c379a00000000000000000000000000000000000000000000000000000000081526004016119c9906125b7565b60405180910390fd5b6000600360008060018111156119eb576119ea612070565b5b60018111156119fd576119fc612070565b5b815260200190815260200160002081905550600160009054906101000a900473ffffffffffffffffffffffffffffffffffffffff1673ffffffffffffffffffffffffffffffffffffffff1663a9059cbb611a55610664565b836040518363ffffffff167c0100000000000000000000000000000000000000000000000000000000028152600401611a8f9291906125d7565b6020604051808303816000875af1158015611aae573d6000803e3d6000fd5b505050506040513d601f19601f82011682018060405250810190611ad29190612193565b507fbcf075696884018cb037610b680550c484e197dd274b39849dcc4c9181b23bc6600082604051611b0592919061251c565b60405180910390a150565b6000604051905090565b600080fd5b600080fd5b6000819050919050565b611b3781611b24565b8114611b4257600080fd5b50565b600081359050611b5481611b2e565b92915050565b600080fd5b600080fd5b6000601f19601f8301169050919050565b7f4e487b7100000000000000000000000000000000000000000000000000000000600052604160045260246000fd5b611bad82611b64565b810181811067ffffffffffffffff82111715611bcc57611bcb611b75565b5b80604052505050565b6000611bdf611b10565b9050611beb8282611ba4565b919050565b600067ffffffffffffffff821115611c0b57611c0a611b75565b5b611c1482611b64565b9050602081019050919050565b82818337600083830152505050565b6000611c43611c3e84611bf0565b611bd5565b905082815260208101848484011115611c5f57611c5e611b5f565b5b611c6a848285611c21565b509392505050565b600082601f830112611c8757611c86611b5a565b5b8135611c97848260208601611c30565b91505092915050565b60008060408385031215611cb757611cb6611b1a565b5b6000611cc585828601611b45565b925050602083013567ffffffffffffffff811115611ce657611ce5611b1f565b5b611cf285828601611c72565b9150509250929050565b600073ffffffffffffffffffffffffffffffffffffffff82169050919050565b6000611d2782611cfc565b9050919050565b611d3781611d1c565b82525050565b6000602082019050611d526000830184611d2e565b92915050565b600060208284031215611d6e57611d6d611b1a565b5b600082013567ffffffffffffffff811115611d8c57611d8b611b1f565b5b611d9884828501611c72565b91505092915050565b600081519050919050565b600082825260208201905092915050565b6000819050602082019050919050565b611dd681611d1c565b82525050565b6000611de88383611dcd565b60208301905092915050565b6000602082019050919050565b6000611e0c82611da1565b611e168185611dac565b9350611e2183611dbd565b8060005b83811015611e52578151611e398882611ddc565b9750611e4483611df4565b925050600181019050611e25565b5085935050505092915050565b60006020820190508181036000830152611e798184611e01565b905092915050565b60028110611e8e57600080fd5b50565b600081359050611ea081611e81565b92915050565b600060208284031215611ebc57611ebb611b1a565b5b6000611eca84828501611e91565b91505092915050565b611edc81611b24565b82525050565b6000602082019050611ef76000830184611ed3565b92915050565b6000606082019050611f126000830186611d2e565b611f1f6020830185611d2e565b611f2c6040830184611d2e565b949350505050565b611f3d81611d1c565b8114611f4857600080fd5b50565b600081359050611f5a81611f34565b92915050565b60008060408385031215611f7757611f76611b1a565b5b6000611f8585828601611f4b565b9250506020611f9685828601611e91565b9150509250929050565b600060208284031215611fb657611fb5611b1a565b5b6000611fc484828501611f4b565b91505092915050565b600082825260208201905092915050565b7f446f6e6174696f6e3a20446f6e6174696f6e2063616e6e6f74206265207a657260008201527f6f21000000000000000000000000000000000000000000000000000000000000602082015250565b600061203a602283611fcd565b915061204582611fde565b604082019050919050565b600060208201905081810360008301526120698161202d565b9050919050565b7f4e487b7100000000000000000000000000000000000000000000000000000000600052602160045260246000fd5b7f4e487b7100000000000000000000000000000000000000000000000000000000600052601160045260246000fd5b60006120d982611b24565b91506120e483611b24565b9250827fffffffffffffffffffffffffffffffffffffffffffffffffffffffffffffffff038211156121195761211861209f565b5b828201905092915050565b60006060820190506121396000830186611d2e565b6121466020830185611d2e565b6121536040830184611ed3565b949350505050565b60008115159050919050565b6121708161215b565b811461217b57600080fd5b50565b60008151905061218d81612167565b92915050565b6000602082840312156121a9576121a8611b1a565b5b60006121b78482850161217e565b91505092915050565b600281106121d1576121d0612070565b5b50565b60008190506121e2826121c0565b919050565b60006121f2826121d4565b9050919050565b612202816121e7565b82525050565b600081519050919050565b60005b83811015612231578082015181840152602081019050612216565b83811115612240576000848401525b50505050565b600061225182612208565b61225b8185611fcd565b935061226b818560208601612213565b61227481611b64565b840191505092915050565b60006080820190506122946000830187611d2e565b6122a160208301866121f9565b6122ae6040830185611ed3565b81810360608301526122c08184612246565b905095945050505050565b7f4f776e61626c653a2063616c6c6572206973206e6f7420746865206f776e6572600082015250565b6000612301602083611fcd565b915061230c826122cb565b602082019050919050565b60006020820190508181036000830152612330816122f4565b9050919050565b7f4e487b7100000000000000000000000000000000000000000000000000000000600052603260045260246000fd5b7f4f776e61626c653a206e6577206f776e657220697320746865207a65726f206160008201527f6464726573730000000000000000000000000000000000000000000000000000602082015250565b60006123c2602683611fcd565b91506123cd82612366565b604082019050919050565b600060208201905081810360008301526123f1816123b5565b9050919050565b7f446f6e6174696f6e3a20416464726573732063616e6e6f7420626520656d707460008201527f7921000000000000000000000000000000000000000000000000000000000000602082015250565b6000612454602283611fcd565b915061245f826123f8565b604082019050919050565b6000602082019050818103600083015261248381612447565b9050919050565b7f4e6f7468696e6720746f2062652077697468647261776e2066726f6d2074686560008201527f20736d61727420636f6e74726163742100000000000000000000000000000000602082015250565b60006124e6603083611fcd565b91506124f18261248a565b604082019050919050565b60006020820190508181036000830152612515816124d9565b9050919050565b600060408201905061253160008301856121f9565b61253e6020830184611ed3565b9392505050565b7f4e6f20534e4f5720746f20626520636f6c6c65637465642066726f6d2074686960008201527f7320636f6e747261637421000000000000000000000000000000000000000000602082015250565b60006125a1602b83611fcd565b91506125ac82612545565b604082019050919050565b600060208201905081810360008301526125d081612594565b9050919050565b60006040820190506125ec6000830185611d2e565b6125f96020830184611ed3565b939250505056fea26469706673582212206dbb9e96294ac8c78204fe2466344d58183cd6e50cd96b38ac7d7343dd7866d264736f6c634300080b0033",
  "immutableReferences": {},
  "source": "// SPDX-License-Identifier: MIT\n\npragma solidity ^0.8.0;\n\nimport \"./ShelterNOW.sol\";\nimport \"@openzeppelin/contracts/access/Ownable.sol\";\n\ncontract Donation is Ownable {\n    // SNOW token contract\n    ShelterNOW SNOW;\n\n    // Mapping from donors to respective token donation.\n    mapping(address => mapping(Token => uint256)) private _donorToDonation;\n\n    // Uncollected token donations from the contract.\n    mapping(Token => uint256) private _uncollectedDonation;\n\n    // Total token donation.\n    mapping(Token => uint256) private _totalDonation;\n\n    // Top 3 donors by token.\n    mapping(Token => address[3]) private _topDonors;\n\n    // An array of unique donor addresses.\n    address[] donors;\n\n    // Type of tokens used, currently only accept SNOW and ETH.\n    enum Token {\n        SNOW,\n        ETH\n    }\n\n    // Event emission of successful donation.\n    event Donate(\n        address donor,\n        Token tokenType,\n        uint256 amount,\n        string message\n    );\n\n    // Event emission of successful withdrawal.\n    event Withdraw(Token tokenType, uint256 amount);\n\n    /**\n     * @dev Initialises the Donation smart contract and assign a corresponding SNOW token contract.\n     *\n     * @param _SNOWAddress: The address to the SNOW token contract.\n     */\n    constructor(address _SNOWAddress) {\n        SNOW = ShelterNOW(_SNOWAddress);\n    }\n\n    /**\n     * @dev Donate to the animal shelter using SNOW token.\n     */\n    function donateSNOW(uint256 amount, string memory message) public {\n        require(amount > 0, \"Donation: Donation cannot be zero!\");\n        address donor = msg.sender;\n\n        _uncollectedDonation[Token.SNOW] += amount;\n        _donorToDonation[donor][Token.SNOW] += amount;\n        _totalDonation[Token.SNOW] += amount;\n\n        if (_donorIsNew(donor)) donors.push(donor);\n        if (bytes(message).length == 0) message = \"None\";\n\n        _setTopDonors(donor, Token.SNOW);\n        SNOW.transferFrom(donor, address(this), amount);\n        emit Donate(donor, Token.SNOW, amount, message);\n    }\n\n    /**\n     * @dev Donate to the animal shelter using Ethereum.\n     */\n    function donateETH(string memory message) public payable {\n        uint256 amount = msg.value;\n        require(amount > 0, \"Donation: Donation cannot be zero!\");\n        address donor = msg.sender;\n\n        _uncollectedDonation[Token.ETH] += amount;\n        _donorToDonation[donor][Token.ETH] += amount;\n        _totalDonation[Token.ETH] += amount;\n\n        if (_donorIsNew(donor)) donors.push(donor);\n        if (bytes(message).length == 0) message = \"None\";\n\n        _setTopDonors(donor, Token.ETH);\n        emit Donate(donor, Token.ETH, amount, message);\n    }\n\n    /**\n     * @dev Withdraw token from the smart contract to the animal shelter's wallet.\n     *\n     * @param tokenType: Type of token\n     */\n    function withdraw(Token tokenType) public payable onlyOwner {\n        if (tokenType == Token.ETH) withdrawEther();\n        else withdrawSNOW();\n    }\n\n    /**\n     * @dev Get all donors.\n     */\n    function getDonors() public view returns (address[] memory) {\n        return donors;\n    }\n\n    /**\n     * @dev Get total amount of donations of a token.\n     *\n     * @param tokenType: Type of token.\n     */\n    function getTotalDonation(Token tokenType) public view returns (uint256) {\n        return _totalDonation[tokenType];\n    }\n\n    /**\n     * @dev Get total amount of uncollected donations of a token.\n     *\n     * @param tokenType: Type of token.\n     */\n    function getUncollectedDonation(Token tokenType)\n        public\n        view\n        returns (uint256)\n    {\n        return _uncollectedDonation[tokenType];\n    }\n\n    /**\n     * @dev Get total amount of donations by a donor of a token.\n     *\n     * @param tokenType: Type of token.\n     */\n    function getDonationOfDonor(address donor, Token tokenType)\n        public\n        view\n        returns (uint256)\n    {\n        return _donorToDonation[donor][tokenType];\n    }\n\n    function getTopDonors(Token tokenType)\n        public\n        view\n        returns (\n            address,\n            address,\n            address\n        )\n    {\n        return (\n            _topDonors[tokenType][0],\n            _topDonors[tokenType][1],\n            _topDonors[tokenType][2]\n        );\n    }\n\n    /**\n     * @dev Withdraw ether from the smart contract if any.\n     */\n    function withdrawEther() internal onlyOwner {\n        uint256 amount = _uncollectedDonation[Token.ETH];\n        require(\n            address(this).balance > 0 && amount > 0,\n            \"Nothing to be withdrawn from the smart contract!\"\n        );\n\n        _uncollectedDonation[Token.ETH] = 0;\n        payable(owner()).transfer(amount);\n\n        emit Withdraw(Token.ETH, amount);\n    }\n\n    /**\n     * @dev Withdraw SNOW from the smart contract if any.\n     */\n    function withdrawSNOW() internal onlyOwner {\n        uint256 amount = _uncollectedDonation[Token.SNOW];\n\n        require(amount > 0, \"No SNOW to be collected from this contract!\");\n        _uncollectedDonation[Token.SNOW] = 0;\n        SNOW.transfer(owner(), amount);\n\n        emit Withdraw(Token.SNOW, amount);\n    }\n\n    /**\n     * @dev Update the top donors if the `donor`'s accumulated donation surpasses the current top 3 in the ranking.\n     *\n     * @param donor: The address of the donor\n     * @param tokenType: Type of token in the ranking.\n     */\n    function _setTopDonors(address donor, Token tokenType) internal {\n        require(donor != address(0), \"Donation: Address cannot be empty!\");\n        uint256 amount = _donorToDonation[donor][tokenType];\n\n        (address top1, address top2, address top3) = (\n            _topDonors[tokenType][0],\n            _topDonors[tokenType][1],\n            _topDonors[tokenType][2]\n        );\n\n        if (amount < _donorToDonation[top3][tokenType]) return;\n\n        if (amount > _donorToDonation[top1][tokenType]) {\n            _topDonors[tokenType][2] = top2;\n            _topDonors[tokenType][1] = top1;\n            _topDonors[tokenType][0] = donor;\n        } else if (amount > _donorToDonation[top2][tokenType]) {\n            _topDonors[tokenType][2] = top2;\n            _topDonors[tokenType][1] = donor;\n        } else if (amount > _donorToDonation[top3][tokenType]) {\n            _topDonors[tokenType][2] = donor;\n        }\n    }\n\n    /**\n     * @dev Check if a donor is new to the donation.\n     *\n     * @param donor: Address of the donor.\n     *\n     * @return Donor is new or not.\n     */\n    function _donorIsNew(address donor) internal view returns (bool) {\n        return\n            _donorToDonation[donor][Token.ETH] == 0 &&\n            _donorToDonation[donor][Token.SNOW] == 0;\n    }\n}\n",
  "sourcePath": "E:\\Users\\user\\Documents\\Homework\\Year 3 Comp\\CSC3632\\animal-shelters-dapp\\contracts\\Donation.sol",
  "compiler": {
    "name": "solc",
    "version": "0.8.11+commit.d7f03943.Emscripten.clang"
  },
  "schemaVersion": "3.4.4",
  "updatedAt": "2022-04-02T22:05:17.366Z",
  "devdoc": {
    "kind": "dev",
    "methods": {
      "constructor": {
        "details": "Initialises the Donation smart contract and assign a corresponding SNOW token contract.",
        "params": {
          "_SNOWAddress": ": The address to the SNOW token contract."
        }
      },
      "donateETH(string)": {
        "details": "Donate to the animal shelter using Ethereum."
      },
      "donateSNOW(uint256,string)": {
        "details": "Donate to the animal shelter using SNOW token."
      },
      "getDonationOfDonor(address,uint8)": {
        "details": "Get total amount of donations by a donor of a token.",
        "params": {
          "tokenType": ": Type of token."
        }
      },
      "getDonors()": {
        "details": "Get all donors."
      },
      "getTotalDonation(uint8)": {
        "details": "Get total amount of donations of a token.",
        "params": {
          "tokenType": ": Type of token."
        }
      },
      "getUncollectedDonation(uint8)": {
        "details": "Get total amount of uncollected donations of a token.",
        "params": {
          "tokenType": ": Type of token."
        }
      },
      "owner()": {
        "details": "Returns the address of the current owner."
      },
      "renounceOwnership()": {
        "details": "Leaves the contract without owner. It will not be possible to call `onlyOwner` functions anymore. Can only be called by the current owner. NOTE: Renouncing ownership will leave the contract without an owner, thereby removing any functionality that is only available to the owner."
      },
      "transferOwnership(address)": {
        "details": "Transfers ownership of the contract to a new account (`newOwner`). Can only be called by the current owner."
      },
      "withdraw(uint8)": {
        "details": "Withdraw token from the smart contract to the animal shelter's wallet.",
        "params": {
          "tokenType": ": Type of token"
        }
      }
    },
    "version": 1
  },
  "userdoc": {
    "kind": "user",
    "methods": {},
    "version": 1
  }
}