{
  "contractName": "Pet",
  "abi": [
    {
      "inputs": [],
      "stateMutability": "nonpayable",
      "type": "constructor"
    },
    {
      "anonymous": false,
      "inputs": [
        {
          "indexed": true,
          "internalType": "address",
          "name": "owner",
          "type": "address"
        },
        {
          "indexed": true,
          "internalType": "address",
          "name": "approved",
          "type": "address"
        },
        {
          "indexed": true,
          "internalType": "uint256",
          "name": "tokenId",
          "type": "uint256"
        }
      ],
      "name": "Approval",
      "type": "event"
    },
    {
      "anonymous": false,
      "inputs": [
        {
          "indexed": true,
          "internalType": "address",
          "name": "owner",
          "type": "address"
        },
        {
          "indexed": true,
          "internalType": "address",
          "name": "operator",
          "type": "address"
        },
        {
          "indexed": false,
          "internalType": "bool",
          "name": "approved",
          "type": "bool"
        }
      ],
      "name": "ApprovalForAll",
      "type": "event"
    },
    {
      "anonymous": false,
      "inputs": [
        {
          "indexed": true,
          "internalType": "address",
          "name": "from",
          "type": "address"
        },
        {
          "indexed": true,
          "internalType": "address",
          "name": "to",
          "type": "address"
        },
        {
          "indexed": true,
          "internalType": "uint256",
          "name": "tokenId",
          "type": "uint256"
        }
      ],
      "name": "Transfer",
      "type": "event"
    },
    {
      "inputs": [
        {
          "internalType": "bytes4",
          "name": "interfaceId",
          "type": "bytes4"
        }
      ],
      "name": "supportsInterface",
      "outputs": [
        {
          "internalType": "bool",
          "name": "",
          "type": "bool"
        }
      ],
      "stateMutability": "view",
      "type": "function"
    },
    {
      "inputs": [
        {
          "internalType": "address",
          "name": "owner",
          "type": "address"
        }
      ],
      "name": "balanceOf",
      "outputs": [
        {
          "internalType": "uint256",
          "name": "",
          "type": "uint256"
        }
      ],
      "stateMutability": "view",
      "type": "function"
    },
    {
      "inputs": [
        {
          "internalType": "uint256",
          "name": "petID",
          "type": "uint256"
        }
      ],
      "name": "ownerOf",
      "outputs": [
        {
          "internalType": "address",
          "name": "",
          "type": "address"
        }
      ],
      "stateMutability": "view",
      "type": "function"
    },
    {
      "inputs": [],
      "name": "name",
      "outputs": [
        {
          "internalType": "string",
          "name": "",
          "type": "string"
        }
      ],
      "stateMutability": "view",
      "type": "function"
    },
    {
      "inputs": [],
      "name": "symbol",
      "outputs": [
        {
          "internalType": "string",
          "name": "",
          "type": "string"
        }
      ],
      "stateMutability": "view",
      "type": "function"
    },
    {
      "inputs": [
        {
          "internalType": "uint256",
          "name": "petID",
          "type": "uint256"
        }
      ],
      "name": "tokenURI",
      "outputs": [
        {
          "internalType": "string",
          "name": "",
          "type": "string"
        }
      ],
      "stateMutability": "view",
      "type": "function"
    },
    {
      "inputs": [],
      "name": "totalSupply",
      "outputs": [
        {
          "internalType": "uint256",
          "name": "",
          "type": "uint256"
        }
      ],
      "stateMutability": "view",
      "type": "function"
    },
    {
      "inputs": [],
      "name": "pets",
      "outputs": [
        {
          "internalType": "uint256[]",
          "name": "",
          "type": "uint256[]"
        }
      ],
      "stateMutability": "view",
      "type": "function"
    },
    {
      "inputs": [
        {
          "internalType": "address",
          "name": "to",
          "type": "address"
        },
        {
          "internalType": "uint256",
          "name": "petID",
          "type": "uint256"
        }
      ],
      "name": "approve",
      "outputs": [],
      "stateMutability": "nonpayable",
      "type": "function"
    },
    {
      "inputs": [
        {
          "internalType": "uint256",
          "name": "petID",
          "type": "uint256"
        }
      ],
      "name": "getApproved",
      "outputs": [
        {
          "internalType": "address",
          "name": "",
          "type": "address"
        }
      ],
      "stateMutability": "view",
      "type": "function"
    },
    {
      "inputs": [
        {
          "internalType": "address",
          "name": "operator",
          "type": "address"
        },
        {
          "internalType": "bool",
          "name": "approved",
          "type": "bool"
        }
      ],
      "name": "setApprovalForAll",
      "outputs": [],
      "stateMutability": "nonpayable",
      "type": "function"
    },
    {
      "inputs": [
        {
          "internalType": "address",
          "name": "owner",
          "type": "address"
        },
        {
          "internalType": "address",
          "name": "operator",
          "type": "address"
        }
      ],
      "name": "isApprovedForAll",
      "outputs": [
        {
          "internalType": "bool",
          "name": "",
          "type": "bool"
        }
      ],
      "stateMutability": "view",
      "type": "function"
    },
    {
      "inputs": [
        {
          "internalType": "address",
          "name": "from",
          "type": "address"
        },
        {
          "internalType": "address",
          "name": "to",
          "type": "address"
        },
        {
          "internalType": "uint256",
          "name": "petID",
          "type": "uint256"
        }
      ],
      "name": "transferFrom",
      "outputs": [],
      "stateMutability": "nonpayable",
      "type": "function"
    },
    {
      "inputs": [
        {
          "internalType": "address",
          "name": "from",
          "type": "address"
        },
        {
          "internalType": "address",
          "name": "to",
          "type": "address"
        },
        {
          "internalType": "uint256",
          "name": "petID",
          "type": "uint256"
        }
      ],
      "name": "safeTransferFrom",
      "outputs": [],
      "stateMutability": "nonpayable",
      "type": "function"
    },
    {
      "inputs": [
        {
          "internalType": "address",
          "name": "from",
          "type": "address"
        },
        {
          "internalType": "address",
          "name": "to",
          "type": "address"
        },
        {
          "internalType": "uint256",
          "name": "petID",
          "type": "uint256"
        },
        {
          "internalType": "bytes",
          "name": "_data",
          "type": "bytes"
        }
      ],
      "name": "safeTransferFrom",
      "outputs": [],
      "stateMutability": "nonpayable",
      "type": "function"
    }
  ],
  "bytecode": "0x60806040523480156200001157600080fd5b506040518060400160405280600781526020017f5368656c74657200000000000000000000000000000000000000000000000000815250600290805190602001906200005f929190620000b4565b506040518060400160405280600481526020017f5348454c0000000000000000000000000000000000000000000000000000000081525060039080519060200190620000ad929190620000b4565b50620001c9565b828054620000c29062000193565b90600052602060002090601f016020900481019282620000e6576000855562000132565b82601f106200010157805160ff191683800117855562000132565b8280016001018555821562000132579182015b828111156200013157825182559160200191906001019062000114565b5b50905062000141919062000145565b5090565b5b808211156200016057600081600090555060010162000146565b5090565b7f4e487b7100000000000000000000000000000000000000000000000000000000600052602260045260246000fd5b60006002820490506001821680620001ac57607f821691505b60208210811415620001c357620001c262000164565b5b50919050565b611fb080620001d96000396000f3fe608060405234801561001057600080fd5b5060043610610112576000357c0100000000000000000000000000000000000000000000000000000000900480636352211e116100b4578063a22cb46511610083578063a22cb465146102a3578063b88d4fde146102bf578063c87b56dd146102db578063e985e9c51461030b57610112565b80636352211e1461020757806370a082311461023757806395d89b4114610267578063a1227b681461028557610112565b8063095ea7b3116100f0578063095ea7b31461019557806318160ddd146101b157806323b872dd146101cf57806342842e0e146101eb57610112565b806301ffc9a71461011757806306fdde0314610147578063081812fc14610165575b600080fd5b610131600480360381019061012c9190611241565b61033b565b60405161013e9190611289565b60405180910390f35b61014f61041d565b60405161015c919061133d565b60405180910390f35b61017f600480360381019061017a9190611395565b6104af565b60405161018c9190611403565b60405180910390f35b6101af60048036038101906101aa919061144a565b61057e565b005b6101b9610696565b6040516101c69190611499565b60405180910390f35b6101e960048036038101906101e491906114b4565b6106a0565b005b610205600480360381019061020091906114b4565b610700565b005b610221600480360381019061021c9190611395565b610720565b60405161022e9190611403565b60405180910390f35b610251600480360381019061024c9190611507565b6107d2565b60405161025e9190611499565b60405180910390f35b61026f6108e4565b60405161027c919061133d565b60405180910390f35b61028d610976565b60405161029a91906115f2565b60405180910390f35b6102bd60048036038101906102b89190611640565b610a0f565b005b6102d960048036038101906102d491906117b5565b610a25565b005b6102f560048036038101906102f09190611395565b610a86565b604051610302919061133d565b60405180910390f35b61032560048036038101906103209190611838565b610bbc565b6040516103329190611289565b60405180910390f35b60007f80ac58cd000000000000000000000000000000000000000000000000000000007bffffffffffffffffffffffffffffffffffffffffffffffffffffffff1916827bffffffffffffffffffffffffffffffffffffffffffffffffffffffff1916148061040657507f5b5e139f000000000000000000000000000000000000000000000000000000007bffffffffffffffffffffffffffffffffffffffffffffffffffffffff1916827bffffffffffffffffffffffffffffffffffffffffffffffffffffffff1916145b80610416575061041582610c50565b5b9050919050565b60606002805461042c906118a7565b80601f0160208091040260200160405190810160405280929190818152602001828054610458906118a7565b80156104a55780601f1061047a576101008083540402835291602001916104a5565b820191906000526020600020905b81548152906001019060200180831161048857829003601f168201915b5050505050905090565b6000818063ffffffff1681146104fa576040517f08c379a00000000000000000000000000000000000000000000000000000000081526004016104f190611925565b60405180910390fd5b61050381610cba565b610542576040517f08c379a0000000000000000000000000000000000000000000000000000000008152600401610539906119b7565b60405180910390fd5b6004600084815260200190815260200160002060009054906101000a900473ffffffffffffffffffffffffffffffffffffffff16915050919050565b600061058982610720565b90508073ffffffffffffffffffffffffffffffffffffffff168373ffffffffffffffffffffffffffffffffffffffff1614156105fa576040517f08c379a00000000000000000000000000000000000000000000000000000000081526004016105f190611a49565b60405180910390fd5b8073ffffffffffffffffffffffffffffffffffffffff16610619610d26565b73ffffffffffffffffffffffffffffffffffffffff161480610648575061064781610642610d26565b610bbc565b5b610687576040517f08c379a000000000000000000000000000000000000000000000000000000000815260040161067e90611adb565b60405180910390fd5b6106918383610d2e565b505050565b6000600654905090565b6106b16106ab610d26565b82610de7565b6106f0576040517f08c379a00000000000000000000000000000000000000000000000000000000081526004016106e790611b6d565b60405180910390fd5b6106fb838383610ec5565b505050565b61071b83838360405180602001604052806000815250610a25565b505050565b6000806001600084815260200190815260200160002060009054906101000a900473ffffffffffffffffffffffffffffffffffffffff169050600073ffffffffffffffffffffffffffffffffffffffff168173ffffffffffffffffffffffffffffffffffffffff1614156107c9576040517f08c379a00000000000000000000000000000000000000000000000000000000081526004016107c090611bff565b60405180910390fd5b80915050919050565b60008073ffffffffffffffffffffffffffffffffffffffff168273ffffffffffffffffffffffffffffffffffffffff161415610843576040517f08c379a000000000000000000000000000000000000000000000000000000000815260040161083a90611c91565b60405180910390fd5b6000805b6006548110156108da578373ffffffffffffffffffffffffffffffffffffffff166001600083815260200190815260200160002060009054906101000a900473ffffffffffffffffffffffffffffffffffffffff1673ffffffffffffffffffffffffffffffffffffffff1614156108c75781806108c390611ce0565b9250505b80806108d290611ce0565b915050610847565b5080915050919050565b6060600380546108f3906118a7565b80601f016020809104026020016040519081016040528092919081815260200182805461091f906118a7565b801561096c5780601f106109415761010080835404028352916020019161096c565b820191906000526020600020905b81548152906001019060200180831161094f57829003601f168201915b5050505050905090565b6060600060065467ffffffffffffffff8111156109965761099561168a565b5b6040519080825280602002602001820160405280156109c45781602001602082028036833780820191505090505b50905060005b600654811015610a0757808282815181106109e8576109e7611d29565b5b60200260200101818152505080806109ff90611ce0565b9150506109ca565b508091505090565b610a21610a1a610d26565b8383611068565b5050565b610a36610a30610d26565b83610de7565b610a75576040517f08c379a0000000000000000000000000000000000000000000000000000000008152600401610a6c90611b6d565b60405180910390fd5b610a80848484610ec5565b50505050565b6060818063ffffffff168114610ad1576040517f08c379a0000000000000000000000000000000000000000000000000000000008152600401610ac890611925565b60405180910390fd5b610ada81610cba565b610b19576040517f08c379a0000000000000000000000000000000000000000000000000000000008152600401610b10906119b7565b60405180910390fd5b6000808481526020019081526020016000208054610b36906118a7565b80601f0160208091040260200160405190810160405280929190818152602001828054610b62906118a7565b8015610baf5780601f10610b8457610100808354040283529160200191610baf565b820191906000526020600020905b815481529060010190602001808311610b9257829003601f168201915b5050505050915050919050565b6000600560008473ffffffffffffffffffffffffffffffffffffffff1673ffffffffffffffffffffffffffffffffffffffff16815260200190815260200160002060008373ffffffffffffffffffffffffffffffffffffffff1673ffffffffffffffffffffffffffffffffffffffff16815260200190815260200160002060009054906101000a900460ff16905092915050565b60007f01ffc9a7000000000000000000000000000000000000000000000000000000007bffffffffffffffffffffffffffffffffffffffffffffffffffffffff1916827bffffffffffffffffffffffffffffffffffffffffffffffffffffffff1916149050919050565b60008073ffffffffffffffffffffffffffffffffffffffff166001600084815260200190815260200160002060009054906101000a900473ffffffffffffffffffffffffffffffffffffffff1673ffffffffffffffffffffffffffffffffffffffff1614159050919050565b600033905090565b816004600083815260200190815260200160002060006101000a81548173ffffffffffffffffffffffffffffffffffffffff021916908373ffffffffffffffffffffffffffffffffffffffff160217905550808273ffffffffffffffffffffffffffffffffffffffff16610da183610720565b73ffffffffffffffffffffffffffffffffffffffff167f8c5be1e5ebec7d5bd14f71427d1e84f3dd0314c0f7b2291e5b200ac8c7c3b92560405160405180910390a45050565b6000610df282610cba565b610e31576040517f08c379a0000000000000000000000000000000000000000000000000000000008152600401610e2890611dca565b60405180910390fd5b6000610e3c83610720565b90508073ffffffffffffffffffffffffffffffffffffffff168473ffffffffffffffffffffffffffffffffffffffff161480610e7e5750610e7d8185610bbc565b5b80610ebc57508373ffffffffffffffffffffffffffffffffffffffff16610ea4846104af565b73ffffffffffffffffffffffffffffffffffffffff16145b91505092915050565b8273ffffffffffffffffffffffffffffffffffffffff16610ee582610720565b73ffffffffffffffffffffffffffffffffffffffff1614610f3b576040517f08c379a0000000000000000000000000000000000000000000000000000000008152600401610f3290611e5c565b60405180910390fd5b600073ffffffffffffffffffffffffffffffffffffffff168273ffffffffffffffffffffffffffffffffffffffff161415610fab576040517f08c379a0000000000000000000000000000000000000000000000000000000008152600401610fa290611eee565b60405180910390fd5b610fb6600082610d2e565b816001600083815260200190815260200160002060006101000a81548173ffffffffffffffffffffffffffffffffffffffff021916908373ffffffffffffffffffffffffffffffffffffffff160217905550808273ffffffffffffffffffffffffffffffffffffffff168473ffffffffffffffffffffffffffffffffffffffff167fddf252ad1be2c89b69c2b068fc378daa952ba7f163c4a11628f55a4df523b3ef60405160405180910390a4505050565b8173ffffffffffffffffffffffffffffffffffffffff168373ffffffffffffffffffffffffffffffffffffffff1614156110d7576040517f08c379a00000000000000000000000000000000000000000000000000000000081526004016110ce90611f5a565b60405180910390fd5b80600560008573ffffffffffffffffffffffffffffffffffffffff1673ffffffffffffffffffffffffffffffffffffffff16815260200190815260200160002060008473ffffffffffffffffffffffffffffffffffffffff1673ffffffffffffffffffffffffffffffffffffffff16815260200190815260200160002060006101000a81548160ff0219169083151502179055508173ffffffffffffffffffffffffffffffffffffffff168373ffffffffffffffffffffffffffffffffffffffff167f17307eab39ab6107e8899845ad3d59bd9653f200f220920489ca2b5937696c31836040516111c89190611289565b60405180910390a3505050565b6000604051905090565b600080fd5b600080fd5b60007fffffffff0000000000000000000000000000000000000000000000000000000082169050919050565b61121e816111e9565b811461122957600080fd5b50565b60008135905061123b81611215565b92915050565b600060208284031215611257576112566111df565b5b60006112658482850161122c565b91505092915050565b60008115159050919050565b6112838161126e565b82525050565b600060208201905061129e600083018461127a565b92915050565b600081519050919050565b600082825260208201905092915050565b60005b838110156112de5780820151818401526020810190506112c3565b838111156112ed576000848401525b50505050565b6000601f19601f8301169050919050565b600061130f826112a4565b61131981856112af565b93506113298185602086016112c0565b611332816112f3565b840191505092915050565b600060208201905081810360008301526113578184611304565b905092915050565b6000819050919050565b6113728161135f565b811461137d57600080fd5b50565b60008135905061138f81611369565b92915050565b6000602082840312156113ab576113aa6111df565b5b60006113b984828501611380565b91505092915050565b600073ffffffffffffffffffffffffffffffffffffffff82169050919050565b60006113ed826113c2565b9050919050565b6113fd816113e2565b82525050565b600060208201905061141860008301846113f4565b92915050565b611427816113e2565b811461143257600080fd5b50565b6000813590506114448161141e565b92915050565b60008060408385031215611461576114606111df565b5b600061146f85828601611435565b925050602061148085828601611380565b9150509250929050565b6114938161135f565b82525050565b60006020820190506114ae600083018461148a565b92915050565b6000806000606084860312156114cd576114cc6111df565b5b60006114db86828701611435565b93505060206114ec86828701611435565b92505060406114fd86828701611380565b9150509250925092565b60006020828403121561151d5761151c6111df565b5b600061152b84828501611435565b91505092915050565b600081519050919050565b600082825260208201905092915050565b6000819050602082019050919050565b6115698161135f565b82525050565b600061157b8383611560565b60208301905092915050565b6000602082019050919050565b600061159f82611534565b6115a9818561153f565b93506115b483611550565b8060005b838110156115e55781516115cc888261156f565b97506115d783611587565b9250506001810190506115b8565b5085935050505092915050565b6000602082019050818103600083015261160c8184611594565b905092915050565b61161d8161126e565b811461162857600080fd5b50565b60008135905061163a81611614565b92915050565b60008060408385031215611657576116566111df565b5b600061166585828601611435565b92505060206116768582860161162b565b9150509250929050565b600080fd5b600080fd5b7f4e487b7100000000000000000000000000000000000000000000000000000000600052604160045260246000fd5b6116c2826112f3565b810181811067ffffffffffffffff821117156116e1576116e061168a565b5b80604052505050565b60006116f46111d5565b905061170082826116b9565b919050565b600067ffffffffffffffff8211156117205761171f61168a565b5b611729826112f3565b9050602081019050919050565b82818337600083830152505050565b600061175861175384611705565b6116ea565b90508281526020810184848401111561177457611773611685565b5b61177f848285611736565b509392505050565b600082601f83011261179c5761179b611680565b5b81356117ac848260208601611745565b91505092915050565b600080600080608085870312156117cf576117ce6111df565b5b60006117dd87828801611435565b94505060206117ee87828801611435565b93505060406117ff87828801611380565b925050606085013567ffffffffffffffff8111156118205761181f6111e4565b5b61182c87828801611787565b91505092959194509250565b6000806040838503121561184f5761184e6111df565b5b600061185d85828601611435565b925050602061186e85828601611435565b9150509250929050565b7f4e487b7100000000000000000000000000000000000000000000000000000000600052602260045260246000fd5b600060028204905060018216806118bf57607f821691505b602082108114156118d3576118d2611878565b5b50919050565b7f506574204944206f7665726c6f61647321000000000000000000000000000000600082015250565b600061190f6011836112af565b915061191a826118d9565b602082019050919050565b6000602082019050818103600083015261193e81611902565b9050919050565b7f4552433732313a20617070726f76656420717565727920666f72206e6f6e657860008201527f697374656e742070657400000000000000000000000000000000000000000000602082015250565b60006119a1602a836112af565b91506119ac82611945565b604082019050919050565b600060208201905081810360008301526119d081611994565b9050919050565b7f4552433732313a20617070726f76616c20746f2063757272656e74206f776e6560008201527f7200000000000000000000000000000000000000000000000000000000000000602082015250565b6000611a336021836112af565b9150611a3e826119d7565b604082019050919050565b60006020820190508181036000830152611a6281611a26565b9050919050565b7f4552433732313a20617070726f76652063616c6c6572206973206e6f74206f7760008201527f6e6572206e6f7220617070726f76656420666f7220616c6c0000000000000000602082015250565b6000611ac56038836112af565b9150611ad082611a69565b604082019050919050565b60006020820190508181036000830152611af481611ab8565b9050919050565b7f4552433732313a207472616e736665722063616c6c6572206973206e6f74206f60008201527f776e6572206e6f7220617070726f766564000000000000000000000000000000602082015250565b6000611b576031836112af565b9150611b6282611afb565b604082019050919050565b60006020820190508181036000830152611b8681611b4a565b9050919050565b7f4552433732313a206f776e657220717565727920666f72206e6f6e657869737460008201527f656e742070657400000000000000000000000000000000000000000000000000602082015250565b6000611be96027836112af565b9150611bf482611b8d565b604082019050919050565b60006020820190508181036000830152611c1881611bdc565b9050919050565b7f4552433732313a2062616c616e636520717565727920666f7220746865207a6560008201527f726f206164647265737300000000000000000000000000000000000000000000602082015250565b6000611c7b602a836112af565b9150611c8682611c1f565b604082019050919050565b60006020820190508181036000830152611caa81611c6e565b9050919050565b7f4e487b7100000000000000000000000000000000000000000000000000000000600052601160045260246000fd5b6000611ceb8261135f565b91507fffffffffffffffffffffffffffffffffffffffffffffffffffffffffffffffff821415611d1e57611d1d611cb1565b5b600182019050919050565b7f4e487b7100000000000000000000000000000000000000000000000000000000600052603260045260246000fd5b7f4552433732313a206f70657261746f7220717565727920666f72206e6f6e657860008201527f697374656e742070657400000000000000000000000000000000000000000000602082015250565b6000611db4602a836112af565b9150611dbf82611d58565b604082019050919050565b60006020820190508181036000830152611de381611da7565b9050919050565b7f4552433732313a207472616e736665722066726f6d20696e636f72726563742060008201527f6f776e6572000000000000000000000000000000000000000000000000000000602082015250565b6000611e466025836112af565b9150611e5182611dea565b604082019050919050565b60006020820190508181036000830152611e7581611e39565b9050919050565b7f4552433732313a207472616e7366657220746f20746865207a65726f2061646460008201527f7265737300000000000000000000000000000000000000000000000000000000602082015250565b6000611ed86024836112af565b9150611ee382611e7c565b604082019050919050565b60006020820190508181036000830152611f0781611ecb565b9050919050565b7f4552433732313a20617070726f766520746f2063616c6c657200000000000000600082015250565b6000611f446019836112af565b9150611f4f82611f0e565b602082019050919050565b60006020820190508181036000830152611f7381611f37565b905091905056fea26469706673582212207f7fcfe838189b16be3c4c0f07b306a6f37e3a50d9e732a07d799b4a4cb68f3064736f6c634300080b0033",
  "immutableReferences": {},
  "source": "// SPDX-License-Identifier: MIT\r\n\r\nimport \"@openzeppelin/contracts/utils/introspection/ERC165.sol\";\r\nimport \"@openzeppelin/contracts/utils/introspection/IERC165.sol\";\r\nimport \"@openzeppelin/contracts/token/ERC721/IERC721.sol\";\r\nimport \"@openzeppelin/contracts/token/ERC721/extensions/IERC721Metadata.sol\";\r\nimport \"@openzeppelin/contracts/utils/Context.sol\";\r\n\r\npragma solidity ^0.8.0;\r\n\r\n/// @author Dylon Wong Chung Yee\r\n/// @title An adoption contract to facilitate and keep track of adoptions in an animal shelter.\r\ncontract Pet is Context, ERC165, IERC721, IERC721Metadata {\r\n    // Mapping from pet ID to the associated token URI.\r\n    mapping(uint256 => string) private _pets;\r\n\r\n    // Mapping from pet ID to the owner address\r\n    mapping(uint256 => address) private _owners;\r\n\r\n    // Token name\r\n    string private _name;\r\n\r\n    // Token symbol\r\n    string private _symbol;\r\n\r\n    // Mapping from pet ID to approved address\r\n    mapping(uint256 => address) private _petApprovals;\r\n\r\n    // Mapping from owner to operator approvals\r\n    mapping(address => mapping(address => bool)) private _operatorApprovals;\r\n\r\n    // Number of pets added.\r\n    uint256 private _petCount;\r\n\r\n    /**\r\n     * @dev Initialises the ERC721 token with name Pet and symbol PET.\r\n     */\r\n    constructor() {\r\n        _name = \"Shelter\";\r\n        _symbol = \"SHEL\";\r\n    }\r\n\r\n    /**\r\n     * @dev Ensure a pet ID parameter pass to a function is valid.\r\n     */\r\n    modifier petIDIsValid(uint256 petID) {\r\n        // 4 billion pet id until overload, probably impossible\r\n        require(petID == uint256(uint32(petID)), \"Pet ID overloads!\");\r\n        require(_exists(petID), \"ERC721: approved query for nonexistent pet\");\r\n        _;\r\n    }\r\n\r\n    /**\r\n     * @inheritdoc IERC165\r\n     */\r\n    function supportsInterface(bytes4 interfaceId)\r\n        public\r\n        view\r\n        override(ERC165, IERC165)\r\n        returns (bool)\r\n    {\r\n        return\r\n            interfaceId == type(IERC721).interfaceId ||\r\n            interfaceId == type(IERC721Metadata).interfaceId ||\r\n            super.supportsInterface(interfaceId);\r\n    }\r\n\r\n    /**\r\n     * @inheritdoc IERC721\r\n     */\r\n    function balanceOf(address owner) public view override returns (uint256) {\r\n        require(\r\n            owner != address(0),\r\n            \"ERC721: balance query for the zero address\"\r\n        );\r\n        uint256 bal = 0;\r\n        for (uint256 i = 0; i < _petCount; i++) {\r\n            if (_owners[i] == owner) bal++;\r\n        }\r\n        return bal;\r\n    }\r\n\r\n    /**\r\n     * @inheritdoc IERC721\r\n     */\r\n    function ownerOf(uint256 petID) public view override returns (address) {\r\n        address owner = _owners[petID];\r\n        require(owner != address(0), \"ERC721: owner query for nonexistent pet\");\r\n        return owner;\r\n    }\r\n\r\n    /**\r\n     * @dev Get token name.\r\n     *\r\n     * @return Token name.\r\n     */\r\n    function name() public view override returns (string memory) {\r\n        return _name;\r\n    }\r\n\r\n    /**\r\n     * @dev Get token symbol.\r\n     *\r\n     * @return Token symbol.\r\n     */\r\n    function symbol() public view override returns (string memory) {\r\n        return _symbol;\r\n    }\r\n\r\n    /**\r\n     * @dev Get token URI.\r\n     *\r\n     * @param petID: Pet ID to query.\r\n     *\r\n     * @return Token URI.\r\n     */\r\n    function tokenURI(uint256 petID)\r\n        public\r\n        view\r\n        override\r\n        petIDIsValid(petID)\r\n        returns (string memory)\r\n    {\r\n        return _pets[petID];\r\n    }\r\n\r\n    /**\r\n     * @dev Get the total number of pets.\r\n     *\r\n     * @return The pet count.\r\n     */\r\n    function totalSupply() public view returns (uint256) {\r\n        return _petCount;\r\n    }\r\n\r\n    /**\r\n     * @dev Get the entire pets record in the animal shelter.\r\n     *\r\n     * @return The pets record.\r\n     */\r\n    function pets() public view returns (uint256[] memory) {\r\n        uint256[] memory result = new uint256[](_petCount);\r\n        for (uint256 i = 0; i < _petCount; i++) {\r\n            result[i] = i;\r\n        }\r\n        return result;\r\n    }\r\n\r\n    /**\r\n     * @inheritdoc IERC721\r\n     */\r\n    function approve(address to, uint256 petID) public override {\r\n        address owner = ownerOf(petID);\r\n        require(to != owner, \"ERC721: approval to current owner\");\r\n\r\n        require(\r\n            _msgSender() == owner || isApprovedForAll(owner, _msgSender()),\r\n            \"ERC721: approve caller is not owner nor approved for all\"\r\n        );\r\n\r\n        _approve(to, petID);\r\n    }\r\n\r\n    /**\r\n     * @inheritdoc IERC721\r\n     */\r\n    function getApproved(uint256 petID)\r\n        public\r\n        view\r\n        override\r\n        petIDIsValid(petID)\r\n        returns (address)\r\n    {\r\n        return _petApprovals[petID];\r\n    }\r\n\r\n    /**\r\n     * @inheritdoc IERC721\r\n     */\r\n    function setApprovalForAll(address operator, bool approved)\r\n        public\r\n        override\r\n    {\r\n        _setApprovalForAll(_msgSender(), operator, approved);\r\n    }\r\n\r\n    /**\r\n     * @inheritdoc IERC721\r\n     */\r\n    function isApprovedForAll(address owner, address operator)\r\n        public\r\n        view\r\n        override\r\n        returns (bool)\r\n    {\r\n        return _operatorApprovals[owner][operator];\r\n    }\r\n\r\n    /**\r\n     * @inheritdoc IERC721\r\n     */\r\n    function transferFrom(\r\n        address from,\r\n        address to,\r\n        uint256 petID\r\n    ) public override {\r\n        require(\r\n            _isApprovedOrOwner(_msgSender(), petID),\r\n            \"ERC721: transfer caller is not owner nor approved\"\r\n        );\r\n\r\n        _transfer(from, to, petID);\r\n    }\r\n\r\n    /**\r\n     * @inheritdoc IERC721\r\n     */\r\n    function safeTransferFrom(\r\n        address from,\r\n        address to,\r\n        uint256 petID\r\n    ) public override {\r\n        safeTransferFrom(from, to, petID, \"\");\r\n    }\r\n\r\n    /**\r\n     * @inheritdoc IERC721\r\n     */\r\n    function safeTransferFrom(\r\n        address from,\r\n        address to,\r\n        uint256 petID,\r\n        bytes memory _data\r\n    ) public override {\r\n        require(\r\n            _isApprovedOrOwner(_msgSender(), petID),\r\n            \"ERC721: transfer caller is not owner nor approved\"\r\n        );\r\n        _transfer(from, to, petID);\r\n    }\r\n\r\n    /**\r\n     * @dev Returns whether `petID` exists.\r\n     *\r\n     * Tokens can be managed by their owner or approved accounts via {approve} or {setApprovalForAll}.\r\n     *\r\n     * Tokens start existing when they are minted (`_mint`)\r\n     */\r\n    function _exists(uint256 petID) internal view returns (bool) {\r\n        return _owners[petID] != address(0);\r\n    }\r\n\r\n    /**\r\n     * @dev Returns whether `spender` is allowed to manage `petID`.\r\n     *\r\n     * Requirements:\r\n     *\r\n     * - `petID` must exist.\r\n     */\r\n    function _isApprovedOrOwner(address spender, uint256 petID)\r\n        internal\r\n        view\r\n        returns (bool)\r\n    {\r\n        require(_exists(petID), \"ERC721: operator query for nonexistent pet\");\r\n        address owner = ownerOf(petID);\r\n        return (spender == owner ||\r\n            isApprovedForAll(owner, spender) ||\r\n            getApproved(petID) == spender);\r\n    }\r\n\r\n    /**\r\n     * @dev Mints `petID` and transfers it to `to`.\r\n     *\r\n     * WARNING: Usage of this method is discouraged, use {_safeMint} whenever possible\r\n     *\r\n     * Requirements:\r\n     *\r\n     * - `petID` must not exist.\r\n     * - `to` cannot be the zero address.\r\n     *\r\n     * Emits a {Transfer} event.\r\n     */\r\n    function _mint(address to, uint256 petID) internal {\r\n        require(to != address(0), \"ERC721: mint to the zero address\");\r\n        require(!_exists(petID), \"ERC721: pet already minted\");\r\n\r\n        _owners[petID] = to;\r\n\r\n        _petCount++;\r\n\r\n        emit Transfer(address(0), to, petID);\r\n    }\r\n\r\n    /**\r\n     * @dev Transfers `petID` from `from` to `to`.\r\n     *  As opposed to {transferFrom}, this imposes no restrictions on msg.sender.\r\n     *\r\n     * Requirements:\r\n     *\r\n     * - `to` cannot be the zero address.\r\n     * - `petID` token must be owned by `from`.\r\n     *\r\n     * Emits a {Transfer} event.\r\n     */\r\n    function _transfer(\r\n        address from,\r\n        address to,\r\n        uint256 petID\r\n    ) internal {\r\n        require(\r\n            ownerOf(petID) == from,\r\n            \"ERC721: transfer from incorrect owner\"\r\n        );\r\n        require(to != address(0), \"ERC721: transfer to the zero address\");\r\n\r\n        // Clear approvals from the previous owner\r\n        _approve(address(0), petID);\r\n\r\n        _owners[petID] = to;\r\n\r\n        emit Transfer(from, to, petID);\r\n    }\r\n\r\n    /**\r\n     * @dev Approve `to` to operate on `petID`\r\n     *\r\n     * Emits a {Approval} event.\r\n     */\r\n    function _approve(address to, uint256 petID) internal {\r\n        _petApprovals[petID] = to;\r\n        emit Approval(ownerOf(petID), to, petID);\r\n    }\r\n\r\n    /**\r\n     * @dev Approve `operator` to operate on all of `owner` pets\r\n     *\r\n     * Emits a {ApprovalForAll} event.\r\n     */\r\n    function _setApprovalForAll(\r\n        address owner,\r\n        address operator,\r\n        bool approved\r\n    ) internal {\r\n        require(owner != operator, \"ERC721: approve to caller\");\r\n        _operatorApprovals[owner][operator] = approved;\r\n        emit ApprovalForAll(owner, operator, approved);\r\n    }\r\n\r\n    /**\r\n     * @dev Update `tokenURI` of `petID`.\r\n     *\r\n     * @param petID: The pet ID to be updated.\r\n     * @param tokenURI_: New token URI.\r\n     */\r\n    function _setTokenURI(uint256 petID, string memory tokenURI_)\r\n        internal\r\n        petIDIsValid(petID)\r\n    {\r\n        _pets[petID] = tokenURI_;\r\n    }\r\n}\r\n",
  "sourcePath": "E:\\Users\\user\\Documents\\Homework\\Year 3 Comp\\CSC3632\\animal-shelters-dapp\\contracts\\Pet.sol",
  "compiler": {
    "name": "solc",
    "version": "0.8.11+commit.d7f03943.Emscripten.clang"
  },
  "schemaVersion": "3.4.4",
  "updatedAt": "2022-04-24T00:12:36.131Z",
  "devdoc": {
    "author": "Dylon Wong Chung Yee",
    "kind": "dev",
    "methods": {
      "approve(address,uint256)": {
        "details": "Gives permission to `to` to transfer `tokenId` token to another account. The approval is cleared when the token is transferred. Only a single account can be approved at a time, so approving the zero address clears previous approvals. Requirements: - The caller must own the token or be an approved operator. - `tokenId` must exist. Emits an {Approval} event."
      },
      "balanceOf(address)": {
        "details": "Returns the number of tokens in ``owner``'s account."
      },
      "constructor": {
        "details": "Initialises the ERC721 token with name Pet and symbol PET."
      },
      "getApproved(uint256)": {
        "details": "Returns the account approved for `tokenId` token. Requirements: - `tokenId` must exist."
      },
      "isApprovedForAll(address,address)": {
        "details": "Returns if the `operator` is allowed to manage all of the assets of `owner`. See {setApprovalForAll}"
      },
      "name()": {
        "details": "Get token name.",
        "returns": {
          "_0": "Token name."
        }
      },
      "ownerOf(uint256)": {
        "details": "Returns the owner of the `tokenId` token. Requirements: - `tokenId` must exist."
      },
      "pets()": {
        "details": "Get the entire pets record in the animal shelter.",
        "returns": {
          "_0": "The pets record."
        }
      },
      "safeTransferFrom(address,address,uint256)": {
        "details": "Safely transfers `tokenId` token from `from` to `to`, checking first that contract recipients are aware of the ERC721 protocol to prevent tokens from being forever locked. Requirements: - `from` cannot be the zero address. - `to` cannot be the zero address. - `tokenId` token must exist and be owned by `from`. - If the caller is not `from`, it must be have been allowed to move this token by either {approve} or {setApprovalForAll}. - If `to` refers to a smart contract, it must implement {IERC721Receiver-onERC721Received}, which is called upon a safe transfer. Emits a {Transfer} event."
      },
      "safeTransferFrom(address,address,uint256,bytes)": {
        "details": "Safely transfers `tokenId` token from `from` to `to`. Requirements: - `from` cannot be the zero address. - `to` cannot be the zero address. - `tokenId` token must exist and be owned by `from`. - If the caller is not `from`, it must be approved to move this token by either {approve} or {setApprovalForAll}. - If `to` refers to a smart contract, it must implement {IERC721Receiver-onERC721Received}, which is called upon a safe transfer. Emits a {Transfer} event."
      },
      "setApprovalForAll(address,bool)": {
        "details": "Approve or remove `operator` as an operator for the caller. Operators can call {transferFrom} or {safeTransferFrom} for any token owned by the caller. Requirements: - The `operator` cannot be the caller. Emits an {ApprovalForAll} event."
      },
      "supportsInterface(bytes4)": {
        "details": "Returns true if this contract implements the interface defined by `interfaceId`. See the corresponding https://eips.ethereum.org/EIPS/eip-165#how-interfaces-are-identified[EIP section] to learn more about how these ids are created. This function call must use less than 30 000 gas."
      },
      "symbol()": {
        "details": "Get token symbol.",
        "returns": {
          "_0": "Token symbol."
        }
      },
      "tokenURI(uint256)": {
        "details": "Get token URI.",
        "params": {
          "petID": ": Pet ID to query."
        },
        "returns": {
          "_0": "Token URI."
        }
      },
      "totalSupply()": {
        "details": "Get the total number of pets.",
        "returns": {
          "_0": "The pet count."
        }
      },
      "transferFrom(address,address,uint256)": {
        "details": "Transfers `tokenId` token from `from` to `to`. WARNING: Usage of this method is discouraged, use {safeTransferFrom} whenever possible. Requirements: - `from` cannot be the zero address. - `to` cannot be the zero address. - `tokenId` token must be owned by `from`. - If the caller is not `from`, it must be approved to move this token by either {approve} or {setApprovalForAll}. Emits a {Transfer} event."
      }
    },
    "title": "An adoption contract to facilitate and keep track of adoptions in an animal shelter.",
    "version": 1
  },
  "userdoc": {
    "kind": "user",
    "methods": {},
    "version": 1
  }
}